{
  "_format": "hh-sol-artifact-1",
  "contractName": "NFT",
  "sourceName": "contracts/mint.sol",
  "abi": [
    {
      "inputs": [],
      "stateMutability": "nonpayable",
      "type": "constructor"
    },
    {
      "anonymous": false,
      "inputs": [
        {
          "indexed": true,
          "internalType": "address",
          "name": "owner",
          "type": "address"
        },
        {
          "indexed": true,
          "internalType": "address",
          "name": "approved",
          "type": "address"
        },
        {
          "indexed": true,
          "internalType": "uint256",
          "name": "tokenId",
          "type": "uint256"
        }
      ],
      "name": "Approval",
      "type": "event"
    },
    {
      "anonymous": false,
      "inputs": [
        {
          "indexed": true,
          "internalType": "address",
          "name": "owner",
          "type": "address"
        },
        {
          "indexed": true,
          "internalType": "address",
          "name": "operator",
          "type": "address"
        },
        {
          "indexed": false,
          "internalType": "bool",
          "name": "approved",
          "type": "bool"
        }
      ],
      "name": "ApprovalForAll",
      "type": "event"
    },
    {
      "anonymous": false,
      "inputs": [
        {
          "indexed": true,
          "internalType": "address",
          "name": "_from",
          "type": "address"
        },
        {
          "indexed": false,
          "internalType": "uint256",
          "name": "_tokenId",
          "type": "uint256"
        }
      ],
      "name": "Minted",
      "type": "event"
    },
    {
      "anonymous": false,
      "inputs": [
        {
          "indexed": true,
          "internalType": "address",
          "name": "from",
          "type": "address"
        },
        {
          "indexed": true,
          "internalType": "address",
          "name": "to",
          "type": "address"
        },
        {
          "indexed": true,
          "internalType": "uint256",
          "name": "tokenId",
          "type": "uint256"
        }
      ],
      "name": "Transfer",
      "type": "event"
    },
    {
      "inputs": [
        {
          "internalType": "address",
          "name": "to",
          "type": "address"
        },
        {
          "internalType": "uint256",
          "name": "tokenId",
          "type": "uint256"
        }
      ],
      "name": "approve",
      "outputs": [],
      "stateMutability": "nonpayable",
      "type": "function"
    },
    {
      "inputs": [
        {
          "internalType": "address",
          "name": "owner",
          "type": "address"
        }
      ],
      "name": "balanceOf",
      "outputs": [
        {
          "internalType": "uint256",
          "name": "",
          "type": "uint256"
        }
      ],
      "stateMutability": "view",
      "type": "function"
    },
    {
      "inputs": [
        {
          "internalType": "uint256",
          "name": "tokenId",
          "type": "uint256"
        }
      ],
      "name": "getApproved",
      "outputs": [
        {
          "internalType": "address",
          "name": "",
          "type": "address"
        }
      ],
      "stateMutability": "view",
      "type": "function"
    },
    {
      "inputs": [
        {
          "internalType": "address",
          "name": "owner",
          "type": "address"
        },
        {
          "internalType": "address",
          "name": "operator",
          "type": "address"
        }
      ],
      "name": "isApprovedForAll",
      "outputs": [
        {
          "internalType": "bool",
          "name": "",
          "type": "bool"
        }
      ],
      "stateMutability": "view",
      "type": "function"
    },
    {
      "inputs": [],
      "name": "mint",
      "outputs": [
        {
          "internalType": "uint256",
          "name": "",
          "type": "uint256"
        }
      ],
      "stateMutability": "nonpayable",
      "type": "function"
    },
    {
      "inputs": [],
      "name": "name",
      "outputs": [
        {
          "internalType": "string",
          "name": "",
          "type": "string"
        }
      ],
      "stateMutability": "view",
      "type": "function"
    },
    {
      "inputs": [
        {
          "internalType": "uint256",
          "name": "tokenId",
          "type": "uint256"
        }
      ],
      "name": "ownerOf",
      "outputs": [
        {
          "internalType": "address",
          "name": "",
          "type": "address"
        }
      ],
      "stateMutability": "view",
      "type": "function"
    },
    {
      "inputs": [
        {
          "internalType": "address",
          "name": "from",
          "type": "address"
        },
        {
          "internalType": "address",
          "name": "to",
          "type": "address"
        },
        {
          "internalType": "uint256",
          "name": "tokenId",
          "type": "uint256"
        }
      ],
      "name": "safeTransferFrom",
      "outputs": [],
      "stateMutability": "nonpayable",
      "type": "function"
    },
    {
      "inputs": [
        {
          "internalType": "address",
          "name": "from",
          "type": "address"
        },
        {
          "internalType": "address",
          "name": "to",
          "type": "address"
        },
        {
          "internalType": "uint256",
          "name": "tokenId",
          "type": "uint256"
        },
        {
          "internalType": "bytes",
          "name": "_data",
          "type": "bytes"
        }
      ],
      "name": "safeTransferFrom",
      "outputs": [],
      "stateMutability": "nonpayable",
      "type": "function"
    },
    {
      "inputs": [
        {
          "internalType": "address",
          "name": "operator",
          "type": "address"
        },
        {
          "internalType": "bool",
          "name": "approved",
          "type": "bool"
        }
      ],
      "name": "setApprovalForAll",
      "outputs": [],
      "stateMutability": "nonpayable",
      "type": "function"
    },
    {
      "inputs": [
        {
          "internalType": "bytes4",
          "name": "interfaceId",
          "type": "bytes4"
        }
      ],
      "name": "supportsInterface",
      "outputs": [
        {
          "internalType": "bool",
          "name": "",
          "type": "bool"
        }
      ],
      "stateMutability": "view",
      "type": "function"
    },
    {
      "inputs": [],
      "name": "symbol",
      "outputs": [
        {
          "internalType": "string",
          "name": "",
          "type": "string"
        }
      ],
      "stateMutability": "view",
      "type": "function"
    },
    {
      "inputs": [
        {
          "internalType": "uint256",
          "name": "index",
          "type": "uint256"
        }
      ],
      "name": "tokenByIndex",
      "outputs": [
        {
          "internalType": "uint256",
          "name": "",
          "type": "uint256"
        }
      ],
      "stateMutability": "view",
      "type": "function"
    },
    {
      "inputs": [
        {
          "internalType": "address",
          "name": "owner",
          "type": "address"
        },
        {
          "internalType": "uint256",
          "name": "index",
          "type": "uint256"
        }
      ],
      "name": "tokenOfOwnerByIndex",
      "outputs": [
        {
          "internalType": "uint256",
          "name": "",
          "type": "uint256"
        }
      ],
      "stateMutability": "view",
      "type": "function"
    },
    {
      "inputs": [
        {
          "internalType": "uint256",
          "name": "tokenId",
          "type": "uint256"
        }
      ],
      "name": "tokenURI",
      "outputs": [
        {
          "internalType": "string",
          "name": "",
          "type": "string"
        }
      ],
      "stateMutability": "view",
      "type": "function"
    },
    {
      "inputs": [],
      "name": "totalSupply",
      "outputs": [
        {
          "internalType": "uint256",
          "name": "",
          "type": "uint256"
        }
      ],
      "stateMutability": "view",
      "type": "function"
    },
    {
      "inputs": [
        {
          "internalType": "address",
          "name": "from",
          "type": "address"
        },
        {
          "internalType": "address",
          "name": "to",
          "type": "address"
        },
        {
          "internalType": "uint256",
          "name": "tokenId",
          "type": "uint256"
        }
      ],
      "name": "transferFrom",
      "outputs": [],
      "stateMutability": "nonpayable",
      "type": "function"
    }
  ],
  "bytecode": "0x60806040523480156200001157600080fd5b506040518060400160405280600381526020017f454c4500000000000000000000000000000000000000000000000000000000008152506040518060400160405280600481526020017f41454c4500000000000000000000000000000000000000000000000000000000815250816000908051906020019062000096929190620000b8565b508060019080519060200190620000af929190620000b8565b505050620001cd565b828054620000c69062000197565b90600052602060002090601f016020900481019282620000ea576000855562000136565b82601f106200010557805160ff191683800117855562000136565b8280016001018555821562000136579182015b828111156200013557825182559160200191906001019062000118565b5b50905062000145919062000149565b5090565b5b80821115620001645760008160009055506001016200014a565b5090565b7f4e487b7100000000000000000000000000000000000000000000000000000000600052602260045260246000fd5b60006002820490506001821680620001b057607f821691505b60208210811415620001c757620001c662000168565b5b50919050565b61309580620001dd6000396000f3fe608060405234801561001057600080fd5b506004361061010b5760003560e01c806342842e0e116100a257806395d89b411161007157806395d89b41146102de578063a22cb465146102fc578063b88d4fde14610318578063c87b56dd14610334578063e985e9c5146103645761010b565b806342842e0e146102325780634f6ccce71461024e5780636352211e1461027e57806370a08231146102ae5761010b565b80631249c58b116100de5780631249c58b146101aa57806318160ddd146101c857806323b872dd146101e65780632f745c59146102025761010b565b806301ffc9a71461011057806306fdde0314610140578063081812fc1461015e578063095ea7b31461018e575b600080fd5b61012a60048036038101906101259190611e1d565b610394565b6040516101379190611e65565b60405180910390f35b61014861040e565b6040516101559190611f19565b60405180910390f35b61017860048036038101906101739190611f71565b6104a0565b6040516101859190611fdf565b60405180910390f35b6101a860048036038101906101a39190612026565b610525565b005b6101b261063d565b6040516101bf9190612075565b60405180910390f35b6101d0610702565b6040516101dd9190612075565b60405180910390f35b61020060048036038101906101fb9190612090565b61070f565b005b61021c60048036038101906102179190612026565b61076f565b6040516102299190612075565b60405180910390f35b61024c60048036038101906102479190612090565b610814565b005b61026860048036038101906102639190611f71565b610834565b6040516102759190612075565b60405180910390f35b61029860048036038101906102939190611f71565b6108a5565b6040516102a59190611fdf565b60405180910390f35b6102c860048036038101906102c391906120e3565b610957565b6040516102d59190612075565b60405180910390f35b6102e6610a0f565b6040516102f39190611f19565b60405180910390f35b6103166004803603810190610311919061213c565b610aa1565b005b610332600480360381019061032d91906122b1565b610ab7565b005b61034e60048036038101906103499190611f71565b610b19565b60405161035b9190611f19565b60405180910390f35b61037e60048036038101906103799190612334565b610bc0565b60405161038b9190611e65565b60405180910390f35b60007f780e9d63000000000000000000000000000000000000000000000000000000007bffffffffffffffffffffffffffffffffffffffffffffffffffffffff1916827bffffffffffffffffffffffffffffffffffffffffffffffffffffffff19161480610407575061040682610c54565b5b9050919050565b60606000805461041d906123a3565b80601f0160208091040260200160405190810160405280929190818152602001828054610449906123a3565b80156104965780601f1061046b57610100808354040283529160200191610496565b820191906000526020600020905b81548152906001019060200180831161047957829003601f168201915b5050505050905090565b60006104ab82610d36565b6104ea576040517f08c379a00000000000000000000000000000000000000000000000000000000081526004016104e190612447565b60405180910390fd5b6004600083815260200190815260200160002060009054906101000a900473ffffffffffffffffffffffffffffffffffffffff169050919050565b6000610530826108a5565b90508073ffffffffffffffffffffffffffffffffffffffff168373ffffffffffffffffffffffffffffffffffffffff1614156105a1576040517f08c379a0000000000000000000000000000000000000000000000000000000008152600401610598906124d9565b60405180910390fd5b8073ffffffffffffffffffffffffffffffffffffffff166105c0610da2565b73ffffffffffffffffffffffffffffffffffffffff1614806105ef57506105ee816105e9610da2565b610bc0565b5b61062e576040517f08c379a00000000000000000000000000000000000000000000000000000000081526004016106259061256b565b60405180910390fd5b6106388383610daa565b505050565b6000600361064b600a610e63565b1061068b576040517f08c379a0000000000000000000000000000000000000000000000000000000008152600401610682906125d7565b60405180910390fd5b610695600a610e71565b60006106a1600a610e63565b90506106ad3382610e87565b3373ffffffffffffffffffffffffffffffffffffffff167f30385c845b448a36257a6a1716e6ad2e1bc2cbe333cde1e69fe849ad6511adfe826040516106f39190612075565b60405180910390a28091505090565b6000600880549050905090565b61072061071a610da2565b82610ea5565b61075f576040517f08c379a000000000000000000000000000000000000000000000000000000000815260040161075690612669565b60405180910390fd5b61076a838383610f83565b505050565b600061077a83610957565b82106107bb576040517f08c379a00000000000000000000000000000000000000000000000000000000081526004016107b2906126fb565b60405180910390fd5b600660008473ffffffffffffffffffffffffffffffffffffffff1673ffffffffffffffffffffffffffffffffffffffff168152602001908152602001600020600083815260200190815260200160002054905092915050565b61082f83838360405180602001604052806000815250610ab7565b505050565b600061083e610702565b821061087f576040517f08c379a00000000000000000000000000000000000000000000000000000000081526004016108769061278d565b60405180910390fd5b60088281548110610893576108926127ad565b5b90600052602060002001549050919050565b6000806002600084815260200190815260200160002060009054906101000a900473ffffffffffffffffffffffffffffffffffffffff169050600073ffffffffffffffffffffffffffffffffffffffff168173ffffffffffffffffffffffffffffffffffffffff16141561094e576040517f08c379a00000000000000000000000000000000000000000000000000000000081526004016109459061284e565b60405180910390fd5b80915050919050565b60008073ffffffffffffffffffffffffffffffffffffffff168273ffffffffffffffffffffffffffffffffffffffff1614156109c8576040517f08c379a00000000000000000000000000000000000000000000000000000000081526004016109bf906128e0565b60405180910390fd5b600360008373ffffffffffffffffffffffffffffffffffffffff1673ffffffffffffffffffffffffffffffffffffffff168152602001908152602001600020549050919050565b606060018054610a1e906123a3565b80601f0160208091040260200160405190810160405280929190818152602001828054610a4a906123a3565b8015610a975780601f10610a6c57610100808354040283529160200191610a97565b820191906000526020600020905b815481529060010190602001808311610a7a57829003601f168201915b5050505050905090565b610ab3610aac610da2565b83836111ea565b5050565b610ac8610ac2610da2565b83610ea5565b610b07576040517f08c379a0000000000000000000000000000000000000000000000000000000008152600401610afe90612669565b60405180910390fd5b610b1384848484611357565b50505050565b6060610b2482610d36565b610b63576040517f08c379a0000000000000000000000000000000000000000000000000000000008152600401610b5a90612972565b60405180910390fd5b6000610b6d6113b3565b90506000815111610b8d5760405180602001604052806000815250610bb8565b80610b97846113d3565b604051602001610ba89291906129ce565b6040516020818303038152906040525b915050919050565b6000600560008473ffffffffffffffffffffffffffffffffffffffff1673ffffffffffffffffffffffffffffffffffffffff16815260200190815260200160002060008373ffffffffffffffffffffffffffffffffffffffff1673ffffffffffffffffffffffffffffffffffffffff16815260200190815260200160002060009054906101000a900460ff16905092915050565b60007f80ac58cd000000000000000000000000000000000000000000000000000000007bffffffffffffffffffffffffffffffffffffffffffffffffffffffff1916827bffffffffffffffffffffffffffffffffffffffffffffffffffffffff19161480610d1f57507f5b5e139f000000000000000000000000000000000000000000000000000000007bffffffffffffffffffffffffffffffffffffffffffffffffffffffff1916827bffffffffffffffffffffffffffffffffffffffffffffffffffffffff1916145b80610d2f5750610d2e82611534565b5b9050919050565b60008073ffffffffffffffffffffffffffffffffffffffff166002600084815260200190815260200160002060009054906101000a900473ffffffffffffffffffffffffffffffffffffffff1673ffffffffffffffffffffffffffffffffffffffff1614159050919050565b600033905090565b816004600083815260200190815260200160002060006101000a81548173ffffffffffffffffffffffffffffffffffffffff021916908373ffffffffffffffffffffffffffffffffffffffff160217905550808273ffffffffffffffffffffffffffffffffffffffff16610e1d836108a5565b73ffffffffffffffffffffffffffffffffffffffff167f8c5be1e5ebec7d5bd14f71427d1e84f3dd0314c0f7b2291e5b200ac8c7c3b92560405160405180910390a45050565b600081600001549050919050565b6001816000016000828254019250508190555050565b610ea182826040518060200160405280600081525061159e565b5050565b6000610eb082610d36565b610eef576040517f08c379a0000000000000000000000000000000000000000000000000000000008152600401610ee690612a64565b60405180910390fd5b6000610efa836108a5565b90508073ffffffffffffffffffffffffffffffffffffffff168473ffffffffffffffffffffffffffffffffffffffff161480610f3c5750610f3b8185610bc0565b5b80610f7a57508373ffffffffffffffffffffffffffffffffffffffff16610f62846104a0565b73ffffffffffffffffffffffffffffffffffffffff16145b91505092915050565b8273ffffffffffffffffffffffffffffffffffffffff16610fa3826108a5565b73ffffffffffffffffffffffffffffffffffffffff1614610ff9576040517f08c379a0000000000000000000000000000000000000000000000000000000008152600401610ff090612af6565b60405180910390fd5b600073ffffffffffffffffffffffffffffffffffffffff168273ffffffffffffffffffffffffffffffffffffffff161415611069576040517f08c379a000000000000000000000000000000000000000000000000000000000815260040161106090612b88565b60405180910390fd5b6110748383836115f9565b61107f600082610daa565b6001600360008573ffffffffffffffffffffffffffffffffffffffff1673ffffffffffffffffffffffffffffffffffffffff16815260200190815260200160002060008282546110cf9190612bd7565b925050819055506001600360008473ffffffffffffffffffffffffffffffffffffffff1673ffffffffffffffffffffffffffffffffffffffff16815260200190815260200160002060008282546111269190612c0b565b92505081905550816002600083815260200190815260200160002060006101000a81548173ffffffffffffffffffffffffffffffffffffffff021916908373ffffffffffffffffffffffffffffffffffffffff160217905550808273ffffffffffffffffffffffffffffffffffffffff168473ffffffffffffffffffffffffffffffffffffffff167fddf252ad1be2c89b69c2b068fc378daa952ba7f163c4a11628f55a4df523b3ef60405160405180910390a46111e583838361170d565b505050565b8173ffffffffffffffffffffffffffffffffffffffff168373ffffffffffffffffffffffffffffffffffffffff161415611259576040517f08c379a000000000000000000000000000000000000000000000000000000000815260040161125090612cad565b60405180910390fd5b80600560008573ffffffffffffffffffffffffffffffffffffffff1673ffffffffffffffffffffffffffffffffffffffff16815260200190815260200160002060008473ffffffffffffffffffffffffffffffffffffffff1673ffffffffffffffffffffffffffffffffffffffff16815260200190815260200160002060006101000a81548160ff0219169083151502179055508173ffffffffffffffffffffffffffffffffffffffff168373ffffffffffffffffffffffffffffffffffffffff167f17307eab39ab6107e8899845ad3d59bd9653f200f220920489ca2b5937696c318360405161134a9190611e65565b60405180910390a3505050565b611362848484610f83565b61136e84848484611712565b6113ad576040517f08c379a00000000000000000000000000000000000000000000000000000000081526004016113a490612d3f565b60405180910390fd5b50505050565b60606040518060600160405280603c8152602001613024603c9139905090565b6060600082141561141b576040518060400160405280600181526020017f3000000000000000000000000000000000000000000000000000000000000000815250905061152f565b600082905060005b6000821461144d57808061143690612d5f565b915050600a826114469190612dd7565b9150611423565b60008167ffffffffffffffff81111561146957611468612186565b5b6040519080825280601f01601f19166020018201604052801561149b5781602001600182028036833780820191505090505b5090505b60008514611528576001826114b49190612bd7565b9150600a856114c39190612e08565b60306114cf9190612c0b565b60f81b8183815181106114e5576114e46127ad565b5b60200101907effffffffffffffffffffffffffffffffffffffffffffffffffffffffffffff1916908160001a905350600a856115219190612dd7565b945061149f565b8093505050505b919050565b60007f01ffc9a7000000000000000000000000000000000000000000000000000000007bffffffffffffffffffffffffffffffffffffffffffffffffffffffff1916827bffffffffffffffffffffffffffffffffffffffffffffffffffffffff1916149050919050565b6115a883836118a9565b6115b56000848484611712565b6115f4576040517f08c379a00000000000000000000000000000000000000000000000000000000081526004016115eb90612d3f565b60405180910390fd5b505050565b611604838383611a83565b600073ffffffffffffffffffffffffffffffffffffffff168373ffffffffffffffffffffffffffffffffffffffff1614156116475761164281611a88565b611686565b8173ffffffffffffffffffffffffffffffffffffffff168373ffffffffffffffffffffffffffffffffffffffff1614611685576116848382611ad1565b5b5b600073ffffffffffffffffffffffffffffffffffffffff168273ffffffffffffffffffffffffffffffffffffffff1614156116c9576116c481611c3e565b611708565b8273ffffffffffffffffffffffffffffffffffffffff168273ffffffffffffffffffffffffffffffffffffffff1614611707576117068282611d0f565b5b5b505050565b505050565b60006117338473ffffffffffffffffffffffffffffffffffffffff16611d8e565b1561189c578373ffffffffffffffffffffffffffffffffffffffff1663150b7a0261175c610da2565b8786866040518563ffffffff1660e01b815260040161177e9493929190612e8e565b602060405180830381600087803b15801561179857600080fd5b505af19250505080156117c957506040513d601f19601f820116820180604052508101906117c69190612eef565b60015b61184c573d80600081146117f9576040519150601f19603f3d011682016040523d82523d6000602084013e6117fe565b606091505b50600081511415611844576040517f08c379a000000000000000000000000000000000000000000000000000000000815260040161183b90612d3f565b60405180910390fd5b805181602001fd5b63150b7a0260e01b7bffffffffffffffffffffffffffffffffffffffffffffffffffffffff1916817bffffffffffffffffffffffffffffffffffffffffffffffffffffffff1916149150506118a1565b600190505b949350505050565b600073ffffffffffffffffffffffffffffffffffffffff168273ffffffffffffffffffffffffffffffffffffffff161415611919576040517f08c379a000000000000000000000000000000000000000000000000000000000815260040161191090612f68565b60405180910390fd5b61192281610d36565b15611962576040517f08c379a000000000000000000000000000000000000000000000000000000000815260040161195990612fd4565b60405180910390fd5b61196e600083836115f9565b6001600360008473ffffffffffffffffffffffffffffffffffffffff1673ffffffffffffffffffffffffffffffffffffffff16815260200190815260200160002060008282546119be9190612c0b565b92505081905550816002600083815260200190815260200160002060006101000a81548173ffffffffffffffffffffffffffffffffffffffff021916908373ffffffffffffffffffffffffffffffffffffffff160217905550808273ffffffffffffffffffffffffffffffffffffffff16600073ffffffffffffffffffffffffffffffffffffffff167fddf252ad1be2c89b69c2b068fc378daa952ba7f163c4a11628f55a4df523b3ef60405160405180910390a4611a7f6000838361170d565b5050565b505050565b6008805490506009600083815260200190815260200160002081905550600881908060018154018082558091505060019003906000526020600020016000909190919091505550565b60006001611ade84610957565b611ae89190612bd7565b9050600060076000848152602001908152602001600020549050818114611bcd576000600660008673ffffffffffffffffffffffffffffffffffffffff1673ffffffffffffffffffffffffffffffffffffffff168152602001908152602001600020600084815260200190815260200160002054905080600660008773ffffffffffffffffffffffffffffffffffffffff1673ffffffffffffffffffffffffffffffffffffffff168152602001908152602001600020600084815260200190815260200160002081905550816007600083815260200190815260200160002081905550505b6007600084815260200190815260200160002060009055600660008573ffffffffffffffffffffffffffffffffffffffff1673ffffffffffffffffffffffffffffffffffffffff16815260200190815260200160002060008381526020019081526020016000206000905550505050565b60006001600880549050611c529190612bd7565b9050600060096000848152602001908152602001600020549050600060088381548110611c8257611c816127ad565b5b906000526020600020015490508060088381548110611ca457611ca36127ad565b5b906000526020600020018190555081600960008381526020019081526020016000208190555060096000858152602001908152602001600020600090556008805480611cf357611cf2612ff4565b5b6001900381819060005260206000200160009055905550505050565b6000611d1a83610957565b905081600660008573ffffffffffffffffffffffffffffffffffffffff1673ffffffffffffffffffffffffffffffffffffffff168152602001908152602001600020600083815260200190815260200160002081905550806007600084815260200190815260200160002081905550505050565b6000808273ffffffffffffffffffffffffffffffffffffffff163b119050919050565b6000604051905090565b600080fd5b600080fd5b60007fffffffff0000000000000000000000000000000000000000000000000000000082169050919050565b611dfa81611dc5565b8114611e0557600080fd5b50565b600081359050611e1781611df1565b92915050565b600060208284031215611e3357611e32611dbb565b5b6000611e4184828501611e08565b91505092915050565b60008115159050919050565b611e5f81611e4a565b82525050565b6000602082019050611e7a6000830184611e56565b92915050565b600081519050919050565b600082825260208201905092915050565b60005b83811015611eba578082015181840152602081019050611e9f565b83811115611ec9576000848401525b50505050565b6000601f19601f8301169050919050565b6000611eeb82611e80565b611ef58185611e8b565b9350611f05818560208601611e9c565b611f0e81611ecf565b840191505092915050565b60006020820190508181036000830152611f338184611ee0565b905092915050565b6000819050919050565b611f4e81611f3b565b8114611f5957600080fd5b50565b600081359050611f6b81611f45565b92915050565b600060208284031215611f8757611f86611dbb565b5b6000611f9584828501611f5c565b91505092915050565b600073ffffffffffffffffffffffffffffffffffffffff82169050919050565b6000611fc982611f9e565b9050919050565b611fd981611fbe565b82525050565b6000602082019050611ff46000830184611fd0565b92915050565b61200381611fbe565b811461200e57600080fd5b50565b60008135905061202081611ffa565b92915050565b6000806040838503121561203d5761203c611dbb565b5b600061204b85828601612011565b925050602061205c85828601611f5c565b9150509250929050565b61206f81611f3b565b82525050565b600060208201905061208a6000830184612066565b92915050565b6000806000606084860312156120a9576120a8611dbb565b5b60006120b786828701612011565b93505060206120c886828701612011565b92505060406120d986828701611f5c565b9150509250925092565b6000602082840312156120f9576120f8611dbb565b5b600061210784828501612011565b91505092915050565b61211981611e4a565b811461212457600080fd5b50565b60008135905061213681612110565b92915050565b6000806040838503121561215357612152611dbb565b5b600061216185828601612011565b925050602061217285828601612127565b9150509250929050565b600080fd5b600080fd5b7f4e487b7100000000000000000000000000000000000000000000000000000000600052604160045260246000fd5b6121be82611ecf565b810181811067ffffffffffffffff821117156121dd576121dc612186565b5b80604052505050565b60006121f0611db1565b90506121fc82826121b5565b919050565b600067ffffffffffffffff82111561221c5761221b612186565b5b61222582611ecf565b9050602081019050919050565b82818337600083830152505050565b600061225461224f84612201565b6121e6565b9050828152602081018484840111156122705761226f612181565b5b61227b848285612232565b509392505050565b600082601f8301126122985761229761217c565b5b81356122a8848260208601612241565b91505092915050565b600080600080608085870312156122cb576122ca611dbb565b5b60006122d987828801612011565b94505060206122ea87828801612011565b93505060406122fb87828801611f5c565b925050606085013567ffffffffffffffff81111561231c5761231b611dc0565b5b61232887828801612283565b91505092959194509250565b6000806040838503121561234b5761234a611dbb565b5b600061235985828601612011565b925050602061236a85828601612011565b9150509250929050565b7f4e487b7100000000000000000000000000000000000000000000000000000000600052602260045260246000fd5b600060028204905060018216806123bb57607f821691505b602082108114156123cf576123ce612374565b5b50919050565b7f4552433732313a20617070726f76656420717565727920666f72206e6f6e657860008201527f697374656e7420746f6b656e0000000000000000000000000000000000000000602082015250565b6000612431602c83611e8b565b915061243c826123d5565b604082019050919050565b6000602082019050818103600083015261246081612424565b9050919050565b7f4552433732313a20617070726f76616c20746f2063757272656e74206f776e6560008201527f7200000000000000000000000000000000000000000000000000000000000000602082015250565b60006124c3602183611e8b565b91506124ce82612467565b604082019050919050565b600060208201905081810360008301526124f2816124b6565b9050919050565b7f4552433732313a20617070726f76652063616c6c6572206973206e6f74206f7760008201527f6e6572206e6f7220617070726f76656420666f7220616c6c0000000000000000602082015250565b6000612555603883611e8b565b9150612560826124f9565b604082019050919050565b6000602082019050818103600083015261258481612548565b9050919050565b7f416c6c204e4654204d696e746564000000000000000000000000000000000000600082015250565b60006125c1600e83611e8b565b91506125cc8261258b565b602082019050919050565b600060208201905081810360008301526125f0816125b4565b9050919050565b7f4552433732313a207472616e736665722063616c6c6572206973206e6f74206f60008201527f776e6572206e6f7220617070726f766564000000000000000000000000000000602082015250565b6000612653603183611e8b565b915061265e826125f7565b604082019050919050565b6000602082019050818103600083015261268281612646565b9050919050565b7f455243373231456e756d657261626c653a206f776e657220696e646578206f7560008201527f74206f6620626f756e6473000000000000000000000000000000000000000000602082015250565b60006126e5602b83611e8b565b91506126f082612689565b604082019050919050565b60006020820190508181036000830152612714816126d8565b9050919050565b7f455243373231456e756d657261626c653a20676c6f62616c20696e646578206f60008201527f7574206f6620626f756e64730000000000000000000000000000000000000000602082015250565b6000612777602c83611e8b565b91506127828261271b565b604082019050919050565b600060208201905081810360008301526127a68161276a565b9050919050565b7f4e487b7100000000000000000000000000000000000000000000000000000000600052603260045260246000fd5b7f4552433732313a206f776e657220717565727920666f72206e6f6e657869737460008201527f656e7420746f6b656e0000000000000000000000000000000000000000000000602082015250565b6000612838602983611e8b565b9150612843826127dc565b604082019050919050565b600060208201905081810360008301526128678161282b565b9050919050565b7f4552433732313a2062616c616e636520717565727920666f7220746865207a6560008201527f726f206164647265737300000000000000000000000000000000000000000000602082015250565b60006128ca602a83611e8b565b91506128d58261286e565b604082019050919050565b600060208201905081810360008301526128f9816128bd565b9050919050565b7f4552433732314d657461646174613a2055524920717565727920666f72206e6f60008201527f6e6578697374656e7420746f6b656e0000000000000000000000000000000000602082015250565b600061295c602f83611e8b565b915061296782612900565b604082019050919050565b6000602082019050818103600083015261298b8161294f565b9050919050565b600081905092915050565b60006129a882611e80565b6129b28185612992565b93506129c2818560208601611e9c565b80840191505092915050565b60006129da828561299d565b91506129e6828461299d565b91508190509392505050565b7f4552433732313a206f70657261746f7220717565727920666f72206e6f6e657860008201527f697374656e7420746f6b656e0000000000000000000000000000000000000000602082015250565b6000612a4e602c83611e8b565b9150612a59826129f2565b604082019050919050565b60006020820190508181036000830152612a7d81612a41565b9050919050565b7f4552433732313a207472616e736665722066726f6d20696e636f72726563742060008201527f6f776e6572000000000000000000000000000000000000000000000000000000602082015250565b6000612ae0602583611e8b565b9150612aeb82612a84565b604082019050919050565b60006020820190508181036000830152612b0f81612ad3565b9050919050565b7f4552433732313a207472616e7366657220746f20746865207a65726f2061646460008201527f7265737300000000000000000000000000000000000000000000000000000000602082015250565b6000612b72602483611e8b565b9150612b7d82612b16565b604082019050919050565b60006020820190508181036000830152612ba181612b65565b9050919050565b7f4e487b7100000000000000000000000000000000000000000000000000000000600052601160045260246000fd5b6000612be282611f3b565b9150612bed83611f3b565b925082821015612c0057612bff612ba8565b5b828203905092915050565b6000612c1682611f3b565b9150612c2183611f3b565b9250827fffffffffffffffffffffffffffffffffffffffffffffffffffffffffffffffff03821115612c5657612c55612ba8565b5b828201905092915050565b7f4552433732313a20617070726f766520746f2063616c6c657200000000000000600082015250565b6000612c97601983611e8b565b9150612ca282612c61565b602082019050919050565b60006020820190508181036000830152612cc681612c8a565b9050919050565b7f4552433732313a207472616e7366657220746f206e6f6e20455243373231526560008201527f63656976657220696d706c656d656e7465720000000000000000000000000000602082015250565b6000612d29603283611e8b565b9150612d3482612ccd565b604082019050919050565b60006020820190508181036000830152612d5881612d1c565b9050919050565b6000612d6a82611f3b565b91507fffffffffffffffffffffffffffffffffffffffffffffffffffffffffffffffff821415612d9d57612d9c612ba8565b5b600182019050919050565b7f4e487b7100000000000000000000000000000000000000000000000000000000600052601260045260246000fd5b6000612de282611f3b565b9150612ded83611f3b565b925082612dfd57612dfc612da8565b5b828204905092915050565b6000612e1382611f3b565b9150612e1e83611f3b565b925082612e2e57612e2d612da8565b5b828206905092915050565b600081519050919050565b600082825260208201905092915050565b6000612e6082612e39565b612e6a8185612e44565b9350612e7a818560208601611e9c565b612e8381611ecf565b840191505092915050565b6000608082019050612ea36000830187611fd0565b612eb06020830186611fd0565b612ebd6040830185612066565b8181036060830152612ecf8184612e55565b905095945050505050565b600081519050612ee981611df1565b92915050565b600060208284031215612f0557612f04611dbb565b5b6000612f1384828501612eda565b91505092915050565b7f4552433732313a206d696e7420746f20746865207a65726f2061646472657373600082015250565b6000612f52602083611e8b565b9150612f5d82612f1c565b602082019050919050565b60006020820190508181036000830152612f8181612f45565b9050919050565b7f4552433732313a20746f6b656e20616c7265616479206d696e74656400000000600082015250565b6000612fbe601c83611e8b565b9150612fc982612f88565b602082019050919050565b60006020820190508181036000830152612fed81612fb1565b9050919050565b7f4e487b7100000000000000000000000000000000000000000000000000000000600052603160045260246000fdfe697066732f516d626e39637a687974456d6e44467453586f5a626a33546b784d33745a754777346233464131426455475637457b69647d2e6a736f6ea2646970667358221220cbf7405de7649483ec8e0776fae261ab28e1a97d85865952e016789e1408153f64736f6c63430008090033",
  "linkReferences": {},
  "deployedLinkReferences": {}
}