{
  "_format": "hh-sol-artifact-1",
  "contractName": "Sandbox1",
  "sourceName": "contracts/Sandbox.sol",
  "abi": [
    {
      "inputs": [
        {
          "internalType": "uint64",
          "name": "publicPrice_",
          "type": "uint64"
        },
        {
          "internalType": "uint256",
          "name": "collectionSize_",
          "type": "uint256"
        }
      ],
      "stateMutability": "nonpayable",
      "type": "constructor"
    },
    {
      "anonymous": false,
      "inputs": [
        {
          "indexed": true,
          "internalType": "address",
          "name": "owner",
          "type": "address"
        },
        {
          "indexed": true,
          "internalType": "address",
          "name": "approved",
          "type": "address"
        },
        {
          "indexed": true,
          "internalType": "uint256",
          "name": "tokenId",
          "type": "uint256"
        }
      ],
      "name": "Approval",
      "type": "event"
    },
    {
      "anonymous": false,
      "inputs": [
        {
          "indexed": true,
          "internalType": "address",
          "name": "owner",
          "type": "address"
        },
        {
          "indexed": true,
          "internalType": "address",
          "name": "operator",
          "type": "address"
        },
        {
          "indexed": false,
          "internalType": "bool",
          "name": "approved",
          "type": "bool"
        }
      ],
      "name": "ApprovalForAll",
      "type": "event"
    },
    {
      "anonymous": false,
      "inputs": [
        {
          "indexed": true,
          "internalType": "address",
          "name": "_from",
          "type": "address"
        },
        {
          "indexed": false,
          "internalType": "uint256",
          "name": "_tokenId",
          "type": "uint256"
        }
      ],
      "name": "Minted",
      "type": "event"
    },
    {
      "anonymous": false,
      "inputs": [
        {
          "indexed": true,
          "internalType": "address",
          "name": "from",
          "type": "address"
        },
        {
          "indexed": true,
          "internalType": "address",
          "name": "to",
          "type": "address"
        },
        {
          "indexed": true,
          "internalType": "uint256",
          "name": "tokenId",
          "type": "uint256"
        }
      ],
      "name": "Transfer",
      "type": "event"
    },
    {
      "inputs": [
        {
          "internalType": "address",
          "name": "to",
          "type": "address"
        },
        {
          "internalType": "uint256",
          "name": "tokenId",
          "type": "uint256"
        }
      ],
      "name": "approve",
      "outputs": [],
      "stateMutability": "nonpayable",
      "type": "function"
    },
    {
      "inputs": [
        {
          "internalType": "address",
          "name": "owner",
          "type": "address"
        }
      ],
      "name": "balanceOf",
      "outputs": [
        {
          "internalType": "uint256",
          "name": "",
          "type": "uint256"
        }
      ],
      "stateMutability": "view",
      "type": "function"
    },
    {
      "inputs": [
        {
          "internalType": "uint256",
          "name": "tokenId",
          "type": "uint256"
        }
      ],
      "name": "getApproved",
      "outputs": [
        {
          "internalType": "address",
          "name": "",
          "type": "address"
        }
      ],
      "stateMutability": "view",
      "type": "function"
    },
    {
      "inputs": [
        {
          "internalType": "address",
          "name": "owner",
          "type": "address"
        },
        {
          "internalType": "address",
          "name": "operator",
          "type": "address"
        }
      ],
      "name": "isApprovedForAll",
      "outputs": [
        {
          "internalType": "bool",
          "name": "",
          "type": "bool"
        }
      ],
      "stateMutability": "view",
      "type": "function"
    },
    {
      "inputs": [],
      "name": "mint",
      "outputs": [],
      "stateMutability": "nonpayable",
      "type": "function"
    },
    {
      "inputs": [],
      "name": "name",
      "outputs": [
        {
          "internalType": "string",
          "name": "",
          "type": "string"
        }
      ],
      "stateMutability": "view",
      "type": "function"
    },
    {
      "inputs": [],
      "name": "owner",
      "outputs": [
        {
          "internalType": "address",
          "name": "",
          "type": "address"
        }
      ],
      "stateMutability": "view",
      "type": "function"
    },
    {
      "inputs": [
        {
          "internalType": "uint256",
          "name": "tokenId",
          "type": "uint256"
        }
      ],
      "name": "ownerOf",
      "outputs": [
        {
          "internalType": "address",
          "name": "",
          "type": "address"
        }
      ],
      "stateMutability": "view",
      "type": "function"
    },
    {
      "inputs": [],
      "name": "publicPrice",
      "outputs": [
        {
          "internalType": "uint64",
          "name": "",
          "type": "uint64"
        }
      ],
      "stateMutability": "view",
      "type": "function"
    },
    {
      "inputs": [
        {
          "internalType": "address",
          "name": "from",
          "type": "address"
        },
        {
          "internalType": "address",
          "name": "to",
          "type": "address"
        },
        {
          "internalType": "uint256",
          "name": "tokenId",
          "type": "uint256"
        }
      ],
      "name": "safeTransferFrom",
      "outputs": [],
      "stateMutability": "nonpayable",
      "type": "function"
    },
    {
      "inputs": [
        {
          "internalType": "address",
          "name": "from",
          "type": "address"
        },
        {
          "internalType": "address",
          "name": "to",
          "type": "address"
        },
        {
          "internalType": "uint256",
          "name": "tokenId",
          "type": "uint256"
        },
        {
          "internalType": "bytes",
          "name": "_data",
          "type": "bytes"
        }
      ],
      "name": "safeTransferFrom",
      "outputs": [],
      "stateMutability": "nonpayable",
      "type": "function"
    },
    {
      "inputs": [
        {
          "internalType": "address[]",
          "name": "addresses",
          "type": "address[]"
        },
        {
          "internalType": "uint256[]",
          "name": "numSlots",
          "type": "uint256[]"
        }
      ],
      "name": "seedWhitelist",
      "outputs": [],
      "stateMutability": "nonpayable",
      "type": "function"
    },
    {
      "inputs": [
        {
          "internalType": "address",
          "name": "operator",
          "type": "address"
        },
        {
          "internalType": "bool",
          "name": "approved",
          "type": "bool"
        }
      ],
      "name": "setApprovalForAll",
      "outputs": [],
      "stateMutability": "nonpayable",
      "type": "function"
    },
    {
      "inputs": [
        {
          "internalType": "string",
          "name": "baseURI",
          "type": "string"
        }
      ],
      "name": "setBaseURI",
      "outputs": [],
      "stateMutability": "nonpayable",
      "type": "function"
    },
    {
      "inputs": [
        {
          "internalType": "bool",
          "name": "isWhitelistPhase_",
          "type": "bool"
        }
      ],
      "name": "setPhase",
      "outputs": [],
      "stateMutability": "nonpayable",
      "type": "function"
    },
    {
      "inputs": [
        {
          "internalType": "uint64",
          "name": "publicPrice_",
          "type": "uint64"
        }
      ],
      "name": "setPublicPrice",
      "outputs": [],
      "stateMutability": "nonpayable",
      "type": "function"
    },
    {
      "inputs": [
        {
          "internalType": "bytes4",
          "name": "interfaceId",
          "type": "bytes4"
        }
      ],
      "name": "supportsInterface",
      "outputs": [
        {
          "internalType": "bool",
          "name": "",
          "type": "bool"
        }
      ],
      "stateMutability": "view",
      "type": "function"
    },
    {
      "inputs": [],
      "name": "symbol",
      "outputs": [
        {
          "internalType": "string",
          "name": "",
          "type": "string"
        }
      ],
      "stateMutability": "view",
      "type": "function"
    },
    {
      "inputs": [
        {
          "internalType": "uint256",
          "name": "tokenId",
          "type": "uint256"
        }
      ],
      "name": "tokenURI",
      "outputs": [
        {
          "internalType": "string",
          "name": "",
          "type": "string"
        }
      ],
      "stateMutability": "view",
      "type": "function"
    },
    {
      "inputs": [
        {
          "internalType": "address",
          "name": "from",
          "type": "address"
        },
        {
          "internalType": "address",
          "name": "to",
          "type": "address"
        },
        {
          "internalType": "uint256",
          "name": "tokenId",
          "type": "uint256"
        }
      ],
      "name": "transferFrom",
      "outputs": [],
      "stateMutability": "nonpayable",
      "type": "function"
    },
    {
      "inputs": [
        {
          "internalType": "address",
          "name": "",
          "type": "address"
        }
      ],
      "name": "whitelist",
      "outputs": [
        {
          "internalType": "uint256",
          "name": "",
          "type": "uint256"
        }
      ],
      "stateMutability": "view",
      "type": "function"
    }
  ],
  "bytecode": "0x60806040526001600b60086101000a81548160ff0219169083151502179055503480156200002c57600080fd5b506040516200440b3803806200440b8339818101604052810190620000529190620004c2565b6040518060400160405280600881526020017f53616e64626f78310000000000000000000000000000000000000000000000008152506040518060400160405280600581526020017f4142454b4f0000000000000000000000000000000000000000000000000000008152508160009080519060200190620000d69291906200038d565b508060019080519060200190620000ef9291906200038d565b505050620001486040518060400160405280601281526020017f7075626c696320707269636520697320257300000000000000000000000000008152508367ffffffffffffffff166200021860201b620014e61760201c565b620001946040518060400160405280601181526020017f6d73672c2073656e64657220697320256400000000000000000000000000000081525033620002be60201b620015821760201c565b33600760006101000a81548173ffffffffffffffffffffffffffffffffffffffff021916908373ffffffffffffffffffffffffffffffffffffffff16021790555081600b60006101000a81548167ffffffffffffffff021916908367ffffffffffffffff1602179055508060088190555063628a10a96009819055505050620006d0565b620002ba828260405160240162000231929190620005be565b6040516020818303038152906040527f9710a9d0000000000000000000000000000000000000000000000000000000007bffffffffffffffffffffffffffffffffffffffffffffffffffffffff19166020820180517bffffffffffffffffffffffffffffffffffffffffffffffffffffffff83818316178352505050506200036460201b60201c565b5050565b620003608282604051602401620002d792919062000637565b6040516020818303038152906040527f319af333000000000000000000000000000000000000000000000000000000007bffffffffffffffffffffffffffffffffffffffffffffffffffffffff19166020820180517bffffffffffffffffffffffffffffffffffffffffffffffffffffffff83818316178352505050506200036460201b60201c565b5050565b60008151905060006a636f6e736f6c652e6c6f679050602083016000808483855afa5050505050565b8280546200039b906200069a565b90600052602060002090601f016020900481019282620003bf57600085556200040b565b82601f10620003da57805160ff19168380011785556200040b565b828001600101855582156200040b579182015b828111156200040a578251825591602001919060010190620003ed565b5b5090506200041a91906200041e565b5090565b5b80821115620004395760008160009055506001016200041f565b5090565b600080fd5b600067ffffffffffffffff82169050919050565b620004618162000442565b81146200046d57600080fd5b50565b600081519050620004818162000456565b92915050565b6000819050919050565b6200049c8162000487565b8114620004a857600080fd5b50565b600081519050620004bc8162000491565b92915050565b60008060408385031215620004dc57620004db6200043d565b5b6000620004ec8582860162000470565b9250506020620004ff85828601620004ab565b9150509250929050565b600081519050919050565b600082825260208201905092915050565b60005b838110156200054557808201518184015260208101905062000528565b8381111562000555576000848401525b50505050565b6000601f19601f8301169050919050565b6000620005798262000509565b62000585818562000514565b93506200059781856020860162000525565b620005a2816200055b565b840191505092915050565b620005b88162000487565b82525050565b60006040820190508181036000830152620005da81856200056c565b9050620005eb6020830184620005ad565b9392505050565b600073ffffffffffffffffffffffffffffffffffffffff82169050919050565b60006200061f82620005f2565b9050919050565b620006318162000612565b82525050565b600060408201905081810360008301526200065381856200056c565b905062000664602083018462000626565b9392505050565b7f4e487b7100000000000000000000000000000000000000000000000000000000600052602260045260246000fd5b60006002820490506001821680620006b357607f821691505b60208210811415620006ca57620006c96200066b565b5b50919050565b613d2b80620006e06000396000f3fe608060405234801561001057600080fd5b50600436106101375760003560e01c806370a08231116100b8578063a945bf801161007c578063a945bf8014610338578063ab58070014610356578063b88d4fde14610372578063c87b56dd1461038e578063e985e9c5146103be578063f0e47b13146103ee57610137565b806370a08231146102805780638da5cb5b146102b057806395d89b41146102ce5780639b19251a146102ec578063a22cb4651461031c57610137565b80631249c58b116100ff5780631249c58b146101f257806323b872dd146101fc57806342842e0e1461021857806355f804b3146102345780636352211e1461025057610137565b806301ffc9a71461013c57806306fdde031461016c578063081812fc1461018a578063095ea7b3146101ba5780630c29dbae146101d6575b600080fd5b610156600480360381019061015191906124c8565b61040a565b6040516101639190612510565b60405180910390f35b6101746104ec565b60405161018191906125c4565b60405180910390f35b6101a4600480360381019061019f919061261c565b61057e565b6040516101b1919061268a565b60405180910390f35b6101d460048036038101906101cf91906126d1565b610603565b005b6101f060048036038101906101eb9190612751565b61071b565b005b6101fa61085b565b005b6102166004803603810190610211919061277e565b610ccd565b005b610232600480360381019061022d919061277e565b610d2d565b005b61024e60048036038101906102499190612836565b610d4d565b005b61026a6004803603810190610265919061261c565b610e38565b604051610277919061268a565b60405180910390f35b61029a60048036038101906102959190612883565b610eea565b6040516102a791906128bf565b60405180910390f35b6102b8610fa2565b6040516102c5919061268a565b60405180910390f35b6102d6610fc8565b6040516102e391906125c4565b60405180910390f35b61030660048036038101906103019190612883565b61105a565b60405161031391906128bf565b60405180910390f35b61033660048036038101906103319190612906565b611072565b005b610340611088565b60405161034d9190612955565b60405180910390f35b610370600480360381019061036b9190612b71565b6110a2565b005b61038c60048036038101906103879190612c9e565b611257565b005b6103a860048036038101906103a3919061261c565b6112b9565b6040516103b591906125c4565b60405180910390f35b6103d860048036038101906103d39190612d21565b611360565b6040516103e59190612510565b60405180910390f35b61040860048036038101906104039190612d61565b6113f4565b005b60007f80ac58cd000000000000000000000000000000000000000000000000000000007bffffffffffffffffffffffffffffffffffffffffffffffffffffffff1916827bffffffffffffffffffffffffffffffffffffffffffffffffffffffff191614806104d557507f5b5e139f000000000000000000000000000000000000000000000000000000007bffffffffffffffffffffffffffffffffffffffffffffffffffffffff1916827bffffffffffffffffffffffffffffffffffffffffffffffffffffffff1916145b806104e557506104e48261161e565b5b9050919050565b6060600080546104fb90612dbd565b80601f016020809104026020016040519081016040528092919081815260200182805461052790612dbd565b80156105745780601f1061054957610100808354040283529160200191610574565b820191906000526020600020905b81548152906001019060200180831161055757829003601f168201915b5050505050905090565b600061058982611688565b6105c8576040517f08c379a00000000000000000000000000000000000000000000000000000000081526004016105bf90612e61565b60405180910390fd5b6004600083815260200190815260200160002060009054906101000a900473ffffffffffffffffffffffffffffffffffffffff169050919050565b600061060e82610e38565b90508073ffffffffffffffffffffffffffffffffffffffff168373ffffffffffffffffffffffffffffffffffffffff16141561067f576040517f08c379a000000000000000000000000000000000000000000000000000000000815260040161067690612ef3565b60405180910390fd5b8073ffffffffffffffffffffffffffffffffffffffff1661069e6116f4565b73ffffffffffffffffffffffffffffffffffffffff1614806106cd57506106cc816106c76116f4565b611360565b5b61070c576040517f08c379a000000000000000000000000000000000000000000000000000000000815260040161070390612f85565b60405180910390fd5b61071683836116fc565b505050565b610760604051806060016040528060298152602001613ccd60299139600760009054906101000a900473ffffffffffffffffffffffffffffffffffffffff16336117b5565b3373ffffffffffffffffffffffffffffffffffffffff16600760009054906101000a900473ffffffffffffffffffffffffffffffffffffffff1673ffffffffffffffffffffffffffffffffffffffff16146107f0576040517f08c379a00000000000000000000000000000000000000000000000000000000081526004016107e790612ff1565b60405180910390fd5b61082f6040518060400160405280601181526020017f626c6f636b2e74696d657374616d703a20000000000000000000000000000000815250426114e6565b80600b60006101000a81548167ffffffffffffffff021916908367ffffffffffffffff16021790555050565b61089a6040518060400160405280600f81526020017f74782e6f726967696e206973202564000000000000000000000000000000000081525032611582565b6108d96040518060400160405280601081526020017f6d73672e73656e6465722069732025640000000000000000000000000000000081525032611582565b3373ffffffffffffffffffffffffffffffffffffffff163273ffffffffffffffffffffffffffffffffffffffff1614610947576040517f08c379a000000000000000000000000000000000000000000000000000000000815260040161093e9061305d565b60405180910390fd5b61098c604051806060016040528060298152602001613ccd60299139600760009054906101000a900473ffffffffffffffffffffffffffffffffffffffff16336117b5565b3373ffffffffffffffffffffffffffffffffffffffff16600760009054906101000a900473ffffffffffffffffffffffffffffffffffffffff1673ffffffffffffffffffffffffffffffffffffffff1614610a1c576040517f08c379a0000000000000000000000000000000000000000000000000000000008152600401610a1390612ff1565b60405180910390fd5b6000600b60009054906101000a900467ffffffffffffffff1667ffffffffffffffff161415610a80576040517f08c379a0000000000000000000000000000000000000000000000000000000008152600401610a77906130c9565b60405180910390fd5b600060095414158015610a9557506009544210155b610ad4576040517f08c379a0000000000000000000000000000000000000000000000000000000008152600401610acb90613135565b60405180910390fd5b6028610ae06006611854565b10610b20576040517f08c379a0000000000000000000000000000000000000000000000000000000008152600401610b17906131a1565b60405180910390fd5b600854610b2d6006611854565b10610b6d576040517f08c379a0000000000000000000000000000000000000000000000000000000008152600401610b649061320d565b60405180910390fd5b600b60089054906101000a900460ff1615610c5a576000600a60003373ffffffffffffffffffffffffffffffffffffffff1673ffffffffffffffffffffffffffffffffffffffff1681526020019081526020016000205411610c04576040517f08c379a0000000000000000000000000000000000000000000000000000000008152600401610bfb90613279565b60405180910390fd5b600a60003373ffffffffffffffffffffffffffffffffffffffff1673ffffffffffffffffffffffffffffffffffffffff1681526020019081526020016000206000815480929190610c54906132c8565b91905055505b610c646006611862565b6000610c706006611854565b9050610c7c3382611878565b3373ffffffffffffffffffffffffffffffffffffffff167f30385c845b448a36257a6a1716e6ad2e1bc2cbe333cde1e69fe849ad6511adfe82604051610cc291906128bf565b60405180910390a250565b610cde610cd86116f4565b82611896565b610d1d576040517f08c379a0000000000000000000000000000000000000000000000000000000008152600401610d1490613364565b60405180910390fd5b610d28838383611974565b505050565b610d4883838360405180602001604052806000815250611257565b505050565b610d92604051806060016040528060298152602001613ccd60299139600760009054906101000a900473ffffffffffffffffffffffffffffffffffffffff16336117b5565b3373ffffffffffffffffffffffffffffffffffffffff16600760009054906101000a900473ffffffffffffffffffffffffffffffffffffffff1673ffffffffffffffffffffffffffffffffffffffff1614610e22576040517f08c379a0000000000000000000000000000000000000000000000000000000008152600401610e1990612ff1565b60405180910390fd5b8181600c9190610e339291906123b9565b505050565b6000806002600084815260200190815260200160002060009054906101000a900473ffffffffffffffffffffffffffffffffffffffff169050600073ffffffffffffffffffffffffffffffffffffffff168173ffffffffffffffffffffffffffffffffffffffff161415610ee1576040517f08c379a0000000000000000000000000000000000000000000000000000000008152600401610ed8906133f6565b60405180910390fd5b80915050919050565b60008073ffffffffffffffffffffffffffffffffffffffff168273ffffffffffffffffffffffffffffffffffffffff161415610f5b576040517f08c379a0000000000000000000000000000000000000000000000000000000008152600401610f5290613488565b60405180910390fd5b600360008373ffffffffffffffffffffffffffffffffffffffff1673ffffffffffffffffffffffffffffffffffffffff168152602001908152602001600020549050919050565b600760009054906101000a900473ffffffffffffffffffffffffffffffffffffffff1681565b606060018054610fd790612dbd565b80601f016020809104026020016040519081016040528092919081815260200182805461100390612dbd565b80156110505780601f1061102557610100808354040283529160200191611050565b820191906000526020600020905b81548152906001019060200180831161103357829003601f168201915b5050505050905090565b600a6020528060005260406000206000915090505481565b61108461107d6116f4565b8383611bdb565b5050565b600b60009054906101000a900467ffffffffffffffff1681565b6110e7604051806060016040528060298152602001613ccd60299139600760009054906101000a900473ffffffffffffffffffffffffffffffffffffffff16336117b5565b3373ffffffffffffffffffffffffffffffffffffffff16600760009054906101000a900473ffffffffffffffffffffffffffffffffffffffff1673ffffffffffffffffffffffffffffffffffffffff1614611177576040517f08c379a000000000000000000000000000000000000000000000000000000000815260040161116e90612ff1565b60405180910390fd5b80518251146111bb576040517f08c379a00000000000000000000000000000000000000000000000000000000081526004016111b29061351a565b60405180910390fd5b60005b8251811015611252578181815181106111da576111d961353a565b5b6020026020010151600a60008584815181106111f9576111f861353a565b5b602002602001015173ffffffffffffffffffffffffffffffffffffffff1673ffffffffffffffffffffffffffffffffffffffff16815260200190815260200160002081905550808061124a90613569565b9150506111be565b505050565b6112686112626116f4565b83611896565b6112a7576040517f08c379a000000000000000000000000000000000000000000000000000000000815260040161129e90613364565b60405180910390fd5b6112b384848484611d48565b50505050565b60606112c482611688565b611303576040517f08c379a00000000000000000000000000000000000000000000000000000000081526004016112fa90613624565b60405180910390fd5b600061130d611da4565b9050600081511161132d5760405180602001604052806000815250611358565b8061133784611e36565b604051602001611348929190613680565b6040516020818303038152906040525b915050919050565b6000600560008473ffffffffffffffffffffffffffffffffffffffff1673ffffffffffffffffffffffffffffffffffffffff16815260200190815260200160002060008373ffffffffffffffffffffffffffffffffffffffff1673ffffffffffffffffffffffffffffffffffffffff16815260200190815260200160002060009054906101000a900460ff16905092915050565b611439604051806060016040528060298152602001613ccd60299139600760009054906101000a900473ffffffffffffffffffffffffffffffffffffffff16336117b5565b3373ffffffffffffffffffffffffffffffffffffffff16600760009054906101000a900473ffffffffffffffffffffffffffffffffffffffff1673ffffffffffffffffffffffffffffffffffffffff16146114c9576040517f08c379a00000000000000000000000000000000000000000000000000000000081526004016114c090612ff1565b60405180910390fd5b80600b60086101000a81548160ff02191690831515021790555050565b61157e82826040516024016114fc9291906136a4565b6040516020818303038152906040527f9710a9d0000000000000000000000000000000000000000000000000000000007bffffffffffffffffffffffffffffffffffffffffffffffffffffffff19166020820180517bffffffffffffffffffffffffffffffffffffffffffffffffffffffff8381831617835250505050611f97565b5050565b61161a82826040516024016115989291906136d4565b6040516020818303038152906040527f319af333000000000000000000000000000000000000000000000000000000007bffffffffffffffffffffffffffffffffffffffffffffffffffffffff19166020820180517bffffffffffffffffffffffffffffffffffffffffffffffffffffffff8381831617835250505050611f97565b5050565b60007f01ffc9a7000000000000000000000000000000000000000000000000000000007bffffffffffffffffffffffffffffffffffffffffffffffffffffffff1916827bffffffffffffffffffffffffffffffffffffffffffffffffffffffff1916149050919050565b60008073ffffffffffffffffffffffffffffffffffffffff166002600084815260200190815260200160002060009054906101000a900473ffffffffffffffffffffffffffffffffffffffff1673ffffffffffffffffffffffffffffffffffffffff1614159050919050565b600033905090565b816004600083815260200190815260200160002060006101000a81548173ffffffffffffffffffffffffffffffffffffffff021916908373ffffffffffffffffffffffffffffffffffffffff160217905550808273ffffffffffffffffffffffffffffffffffffffff1661176f83610e38565b73ffffffffffffffffffffffffffffffffffffffff167f8c5be1e5ebec7d5bd14f71427d1e84f3dd0314c0f7b2291e5b200ac8c7c3b92560405160405180910390a45050565b61184f8383836040516024016117cd93929190613704565b6040516020818303038152906040527ffcec75e0000000000000000000000000000000000000000000000000000000007bffffffffffffffffffffffffffffffffffffffffffffffffffffffff19166020820180517bffffffffffffffffffffffffffffffffffffffffffffffffffffffff8381831617835250505050611f97565b505050565b600081600001549050919050565b6001816000016000828254019250508190555050565b611892828260405180602001604052806000815250611fc0565b5050565b60006118a182611688565b6118e0576040517f08c379a00000000000000000000000000000000000000000000000000000000081526004016118d7906137b4565b60405180910390fd5b60006118eb83610e38565b90508073ffffffffffffffffffffffffffffffffffffffff168473ffffffffffffffffffffffffffffffffffffffff16148061192d575061192c8185611360565b5b8061196b57508373ffffffffffffffffffffffffffffffffffffffff166119538461057e565b73ffffffffffffffffffffffffffffffffffffffff16145b91505092915050565b8273ffffffffffffffffffffffffffffffffffffffff1661199482610e38565b73ffffffffffffffffffffffffffffffffffffffff16146119ea576040517f08c379a00000000000000000000000000000000000000000000000000000000081526004016119e190613846565b60405180910390fd5b600073ffffffffffffffffffffffffffffffffffffffff168273ffffffffffffffffffffffffffffffffffffffff161415611a5a576040517f08c379a0000000000000000000000000000000000000000000000000000000008152600401611a51906138d8565b60405180910390fd5b611a6583838361201b565b611a706000826116fc565b6001600360008573ffffffffffffffffffffffffffffffffffffffff1673ffffffffffffffffffffffffffffffffffffffff1681526020019081526020016000206000828254611ac091906138f8565b925050819055506001600360008473ffffffffffffffffffffffffffffffffffffffff1673ffffffffffffffffffffffffffffffffffffffff1681526020019081526020016000206000828254611b17919061392c565b92505081905550816002600083815260200190815260200160002060006101000a81548173ffffffffffffffffffffffffffffffffffffffff021916908373ffffffffffffffffffffffffffffffffffffffff160217905550808273ffffffffffffffffffffffffffffffffffffffff168473ffffffffffffffffffffffffffffffffffffffff167fddf252ad1be2c89b69c2b068fc378daa952ba7f163c4a11628f55a4df523b3ef60405160405180910390a4611bd6838383612020565b505050565b8173ffffffffffffffffffffffffffffffffffffffff168373ffffffffffffffffffffffffffffffffffffffff161415611c4a576040517f08c379a0000000000000000000000000000000000000000000000000000000008152600401611c41906139ce565b60405180910390fd5b80600560008573ffffffffffffffffffffffffffffffffffffffff1673ffffffffffffffffffffffffffffffffffffffff16815260200190815260200160002060008473ffffffffffffffffffffffffffffffffffffffff1673ffffffffffffffffffffffffffffffffffffffff16815260200190815260200160002060006101000a81548160ff0219169083151502179055508173ffffffffffffffffffffffffffffffffffffffff168373ffffffffffffffffffffffffffffffffffffffff167f17307eab39ab6107e8899845ad3d59bd9653f200f220920489ca2b5937696c3183604051611d3b9190612510565b60405180910390a3505050565b611d53848484611974565b611d5f84848484612025565b611d9e576040517f08c379a0000000000000000000000000000000000000000000000000000000008152600401611d9590613a60565b60405180910390fd5b50505050565b6060600c8054611db390612dbd565b80601f0160208091040260200160405190810160405280929190818152602001828054611ddf90612dbd565b8015611e2c5780601f10611e0157610100808354040283529160200191611e2c565b820191906000526020600020905b815481529060010190602001808311611e0f57829003601f168201915b5050505050905090565b60606000821415611e7e576040518060400160405280600181526020017f30000000000000000000000000000000000000000000000000000000000000008152509050611f92565b600082905060005b60008214611eb0578080611e9990613569565b915050600a82611ea99190613aaf565b9150611e86565b60008167ffffffffffffffff811115611ecc57611ecb612970565b5b6040519080825280601f01601f191660200182016040528015611efe5781602001600182028036833780820191505090505b5090505b60008514611f8b57600182611f1791906138f8565b9150600a85611f269190613ae0565b6030611f32919061392c565b60f81b818381518110611f4857611f4761353a565b5b60200101907effffffffffffffffffffffffffffffffffffffffffffffffffffffffffffff1916908160001a905350600a85611f849190613aaf565b9450611f02565b8093505050505b919050565b60008151905060006a636f6e736f6c652e6c6f679050602083016000808483855afa5050505050565b611fca83836121bc565b611fd76000848484612025565b612016576040517f08c379a000000000000000000000000000000000000000000000000000000000815260040161200d90613a60565b60405180910390fd5b505050565b505050565b505050565b60006120468473ffffffffffffffffffffffffffffffffffffffff16612396565b156121af578373ffffffffffffffffffffffffffffffffffffffff1663150b7a0261206f6116f4565b8786866040518563ffffffff1660e01b81526004016120919493929190613b66565b602060405180830381600087803b1580156120ab57600080fd5b505af19250505080156120dc57506040513d601f19601f820116820180604052508101906120d99190613bc7565b60015b61215f573d806000811461210c576040519150601f19603f3d011682016040523d82523d6000602084013e612111565b606091505b50600081511415612157576040517f08c379a000000000000000000000000000000000000000000000000000000000815260040161214e90613a60565b60405180910390fd5b805181602001fd5b63150b7a0260e01b7bffffffffffffffffffffffffffffffffffffffffffffffffffffffff1916817bffffffffffffffffffffffffffffffffffffffffffffffffffffffff1916149150506121b4565b600190505b949350505050565b600073ffffffffffffffffffffffffffffffffffffffff168273ffffffffffffffffffffffffffffffffffffffff16141561222c576040517f08c379a000000000000000000000000000000000000000000000000000000000815260040161222390613c40565b60405180910390fd5b61223581611688565b15612275576040517f08c379a000000000000000000000000000000000000000000000000000000000815260040161226c90613cac565b60405180910390fd5b6122816000838361201b565b6001600360008473ffffffffffffffffffffffffffffffffffffffff1673ffffffffffffffffffffffffffffffffffffffff16815260200190815260200160002060008282546122d1919061392c565b92505081905550816002600083815260200190815260200160002060006101000a81548173ffffffffffffffffffffffffffffffffffffffff021916908373ffffffffffffffffffffffffffffffffffffffff160217905550808273ffffffffffffffffffffffffffffffffffffffff16600073ffffffffffffffffffffffffffffffffffffffff167fddf252ad1be2c89b69c2b068fc378daa952ba7f163c4a11628f55a4df523b3ef60405160405180910390a461239260008383612020565b5050565b6000808273ffffffffffffffffffffffffffffffffffffffff163b119050919050565b8280546123c590612dbd565b90600052602060002090601f0160209004810192826123e7576000855561242e565b82601f1061240057803560ff191683800117855561242e565b8280016001018555821561242e579182015b8281111561242d578235825591602001919060010190612412565b5b50905061243b919061243f565b5090565b5b80821115612458576000816000905550600101612440565b5090565b6000604051905090565b600080fd5b600080fd5b60007fffffffff0000000000000000000000000000000000000000000000000000000082169050919050565b6124a581612470565b81146124b057600080fd5b50565b6000813590506124c28161249c565b92915050565b6000602082840312156124de576124dd612466565b5b60006124ec848285016124b3565b91505092915050565b60008115159050919050565b61250a816124f5565b82525050565b60006020820190506125256000830184612501565b92915050565b600081519050919050565b600082825260208201905092915050565b60005b8381101561256557808201518184015260208101905061254a565b83811115612574576000848401525b50505050565b6000601f19601f8301169050919050565b60006125968261252b565b6125a08185612536565b93506125b0818560208601612547565b6125b98161257a565b840191505092915050565b600060208201905081810360008301526125de818461258b565b905092915050565b6000819050919050565b6125f9816125e6565b811461260457600080fd5b50565b600081359050612616816125f0565b92915050565b60006020828403121561263257612631612466565b5b600061264084828501612607565b91505092915050565b600073ffffffffffffffffffffffffffffffffffffffff82169050919050565b600061267482612649565b9050919050565b61268481612669565b82525050565b600060208201905061269f600083018461267b565b92915050565b6126ae81612669565b81146126b957600080fd5b50565b6000813590506126cb816126a5565b92915050565b600080604083850312156126e8576126e7612466565b5b60006126f6858286016126bc565b925050602061270785828601612607565b9150509250929050565b600067ffffffffffffffff82169050919050565b61272e81612711565b811461273957600080fd5b50565b60008135905061274b81612725565b92915050565b60006020828403121561276757612766612466565b5b60006127758482850161273c565b91505092915050565b60008060006060848603121561279757612796612466565b5b60006127a5868287016126bc565b93505060206127b6868287016126bc565b92505060406127c786828701612607565b9150509250925092565b600080fd5b600080fd5b600080fd5b60008083601f8401126127f6576127f56127d1565b5b8235905067ffffffffffffffff811115612813576128126127d6565b5b60208301915083600182028301111561282f5761282e6127db565b5b9250929050565b6000806020838503121561284d5761284c612466565b5b600083013567ffffffffffffffff81111561286b5761286a61246b565b5b612877858286016127e0565b92509250509250929050565b60006020828403121561289957612898612466565b5b60006128a7848285016126bc565b91505092915050565b6128b9816125e6565b82525050565b60006020820190506128d460008301846128b0565b92915050565b6128e3816124f5565b81146128ee57600080fd5b50565b600081359050612900816128da565b92915050565b6000806040838503121561291d5761291c612466565b5b600061292b858286016126bc565b925050602061293c858286016128f1565b9150509250929050565b61294f81612711565b82525050565b600060208201905061296a6000830184612946565b92915050565b7f4e487b7100000000000000000000000000000000000000000000000000000000600052604160045260246000fd5b6129a88261257a565b810181811067ffffffffffffffff821117156129c7576129c6612970565b5b80604052505050565b60006129da61245c565b90506129e6828261299f565b919050565b600067ffffffffffffffff821115612a0657612a05612970565b5b602082029050602081019050919050565b6000612a2a612a25846129eb565b6129d0565b90508083825260208201905060208402830185811115612a4d57612a4c6127db565b5b835b81811015612a765780612a6288826126bc565b845260208401935050602081019050612a4f565b5050509392505050565b600082601f830112612a9557612a946127d1565b5b8135612aa5848260208601612a17565b91505092915050565b600067ffffffffffffffff821115612ac957612ac8612970565b5b602082029050602081019050919050565b6000612aed612ae884612aae565b6129d0565b90508083825260208201905060208402830185811115612b1057612b0f6127db565b5b835b81811015612b395780612b258882612607565b845260208401935050602081019050612b12565b5050509392505050565b600082601f830112612b5857612b576127d1565b5b8135612b68848260208601612ada565b91505092915050565b60008060408385031215612b8857612b87612466565b5b600083013567ffffffffffffffff811115612ba657612ba561246b565b5b612bb285828601612a80565b925050602083013567ffffffffffffffff811115612bd357612bd261246b565b5b612bdf85828601612b43565b9150509250929050565b600080fd5b600067ffffffffffffffff821115612c0957612c08612970565b5b612c128261257a565b9050602081019050919050565b82818337600083830152505050565b6000612c41612c3c84612bee565b6129d0565b905082815260208101848484011115612c5d57612c5c612be9565b5b612c68848285612c1f565b509392505050565b600082601f830112612c8557612c846127d1565b5b8135612c95848260208601612c2e565b91505092915050565b60008060008060808587031215612cb857612cb7612466565b5b6000612cc6878288016126bc565b9450506020612cd7878288016126bc565b9350506040612ce887828801612607565b925050606085013567ffffffffffffffff811115612d0957612d0861246b565b5b612d1587828801612c70565b91505092959194509250565b60008060408385031215612d3857612d37612466565b5b6000612d46858286016126bc565b9250506020612d57858286016126bc565b9150509250929050565b600060208284031215612d7757612d76612466565b5b6000612d85848285016128f1565b91505092915050565b7f4e487b7100000000000000000000000000000000000000000000000000000000600052602260045260246000fd5b60006002820490506001821680612dd557607f821691505b60208210811415612de957612de8612d8e565b5b50919050565b7f4552433732313a20617070726f76656420717565727920666f72206e6f6e657860008201527f697374656e7420746f6b656e0000000000000000000000000000000000000000602082015250565b6000612e4b602c83612536565b9150612e5682612def565b604082019050919050565b60006020820190508181036000830152612e7a81612e3e565b9050919050565b7f4552433732313a20617070726f76616c20746f2063757272656e74206f776e6560008201527f7200000000000000000000000000000000000000000000000000000000000000602082015250565b6000612edd602183612536565b9150612ee882612e81565b604082019050919050565b60006020820190508181036000830152612f0c81612ed0565b9050919050565b7f4552433732313a20617070726f76652063616c6c6572206973206e6f74206f7760008201527f6e6572206e6f7220617070726f76656420666f7220616c6c0000000000000000602082015250565b6000612f6f603883612536565b9150612f7a82612f13565b604082019050919050565b60006020820190508181036000830152612f9e81612f62565b9050919050565b7f6e6f742061206f776e6572000000000000000000000000000000000000000000600082015250565b6000612fdb600b83612536565b9150612fe682612fa5565b602082019050919050565b6000602082019050818103600083015261300a81612fce565b9050919050565b7f5468652063616c6c657220697320616e6f7468657220636f6e74726163740000600082015250565b6000613047601e83612536565b915061305282613011565b602082019050919050565b600060208201905081810360008301526130768161303a565b9050919050565b7f5075626c69632073616c6520686173206e6f7420626567756e20796574000000600082015250565b60006130b3601d83612536565b91506130be8261307d565b602082019050919050565b600060208201905081810360008301526130e2816130a6565b9050919050565b7f73616c6520686173206e6f742073746172746564207965740000000000000000600082015250565b600061311f601883612536565b915061312a826130e9565b602082019050919050565b6000602082019050818103600083015261314e81613112565b9050919050565b7f416c6c204e4654204d696e746564000000000000000000000000000000000000600082015250565b600061318b600e83612536565b915061319682613155565b602082019050919050565b600060208201905081810360008301526131ba8161317e565b9050919050565b7f536f6c64206f7574000000000000000000000000000000000000000000000000600082015250565b60006131f7600883612536565b9150613202826131c1565b602082019050919050565b60006020820190508181036000830152613226816131ea565b9050919050565b7f6e6f7420656c696769626c6520666f722077686974656c697374206d696e7400600082015250565b6000613263601f83612536565b915061326e8261322d565b602082019050919050565b6000602082019050818103600083015261329281613256565b9050919050565b7f4e487b7100000000000000000000000000000000000000000000000000000000600052601160045260246000fd5b60006132d3826125e6565b915060008214156132e7576132e6613299565b5b600182039050919050565b7f4552433732313a207472616e736665722063616c6c6572206973206e6f74206f60008201527f776e6572206e6f7220617070726f766564000000000000000000000000000000602082015250565b600061334e603183612536565b9150613359826132f2565b604082019050919050565b6000602082019050818103600083015261337d81613341565b9050919050565b7f4552433732313a206f776e657220717565727920666f72206e6f6e657869737460008201527f656e7420746f6b656e0000000000000000000000000000000000000000000000602082015250565b60006133e0602983612536565b91506133eb82613384565b604082019050919050565b6000602082019050818103600083015261340f816133d3565b9050919050565b7f4552433732313a2062616c616e636520717565727920666f7220746865207a6560008201527f726f206164647265737300000000000000000000000000000000000000000000602082015250565b6000613472602a83612536565b915061347d82613416565b604082019050919050565b600060208201905081810360008301526134a181613465565b9050919050565b7f61646472657373657320646f6573206e6f74206d61746368206e756d536c6f7460008201527f73206c656e677468000000000000000000000000000000000000000000000000602082015250565b6000613504602883612536565b915061350f826134a8565b604082019050919050565b60006020820190508181036000830152613533816134f7565b9050919050565b7f4e487b7100000000000000000000000000000000000000000000000000000000600052603260045260246000fd5b6000613574826125e6565b91507fffffffffffffffffffffffffffffffffffffffffffffffffffffffffffffffff8214156135a7576135a6613299565b5b600182019050919050565b7f4552433732314d657461646174613a2055524920717565727920666f72206e6f60008201527f6e6578697374656e7420746f6b656e0000000000000000000000000000000000602082015250565b600061360e602f83612536565b9150613619826135b2565b604082019050919050565b6000602082019050818103600083015261363d81613601565b9050919050565b600081905092915050565b600061365a8261252b565b6136648185613644565b9350613674818560208601612547565b80840191505092915050565b600061368c828561364f565b9150613698828461364f565b91508190509392505050565b600060408201905081810360008301526136be818561258b565b90506136cd60208301846128b0565b9392505050565b600060408201905081810360008301526136ee818561258b565b90506136fd602083018461267b565b9392505050565b6000606082019050818103600083015261371e818661258b565b905061372d602083018561267b565b61373a604083018461267b565b949350505050565b7f4552433732313a206f70657261746f7220717565727920666f72206e6f6e657860008201527f697374656e7420746f6b656e0000000000000000000000000000000000000000602082015250565b600061379e602c83612536565b91506137a982613742565b604082019050919050565b600060208201905081810360008301526137cd81613791565b9050919050565b7f4552433732313a207472616e736665722066726f6d20696e636f72726563742060008201527f6f776e6572000000000000000000000000000000000000000000000000000000602082015250565b6000613830602583612536565b915061383b826137d4565b604082019050919050565b6000602082019050818103600083015261385f81613823565b9050919050565b7f4552433732313a207472616e7366657220746f20746865207a65726f2061646460008201527f7265737300000000000000000000000000000000000000000000000000000000602082015250565b60006138c2602483612536565b91506138cd82613866565b604082019050919050565b600060208201905081810360008301526138f1816138b5565b9050919050565b6000613903826125e6565b915061390e836125e6565b92508282101561392157613920613299565b5b828203905092915050565b6000613937826125e6565b9150613942836125e6565b9250827fffffffffffffffffffffffffffffffffffffffffffffffffffffffffffffffff0382111561397757613976613299565b5b828201905092915050565b7f4552433732313a20617070726f766520746f2063616c6c657200000000000000600082015250565b60006139b8601983612536565b91506139c382613982565b602082019050919050565b600060208201905081810360008301526139e7816139ab565b9050919050565b7f4552433732313a207472616e7366657220746f206e6f6e20455243373231526560008201527f63656976657220696d706c656d656e7465720000000000000000000000000000602082015250565b6000613a4a603283612536565b9150613a55826139ee565b604082019050919050565b60006020820190508181036000830152613a7981613a3d565b9050919050565b7f4e487b7100000000000000000000000000000000000000000000000000000000600052601260045260246000fd5b6000613aba826125e6565b9150613ac5836125e6565b925082613ad557613ad4613a80565b5b828204905092915050565b6000613aeb826125e6565b9150613af6836125e6565b925082613b0657613b05613a80565b5b828206905092915050565b600081519050919050565b600082825260208201905092915050565b6000613b3882613b11565b613b428185613b1c565b9350613b52818560208601612547565b613b5b8161257a565b840191505092915050565b6000608082019050613b7b600083018761267b565b613b88602083018661267b565b613b9560408301856128b0565b8181036060830152613ba78184613b2d565b905095945050505050565b600081519050613bc18161249c565b92915050565b600060208284031215613bdd57613bdc612466565b5b6000613beb84828501613bb2565b91505092915050565b7f4552433732313a206d696e7420746f20746865207a65726f2061646472657373600082015250565b6000613c2a602083612536565b9150613c3582613bf4565b602082019050919050565b60006020820190508181036000830152613c5981613c1d565b9050919050565b7f4552433732313a20746f6b656e20616c7265616479206d696e74656400000000600082015250565b6000613c96601c83612536565b9150613ca182613c60565b602082019050919050565b60006020820190508181036000830152613cc581613c89565b905091905056fe6f6e6c794f776e65723a206f776e6572206973202564202f206d73672e73656e646572206973202564a2646970667358221220ed75a65ef46c37353eb86fc8f2c55a76a687abd135f921479264fbbee2ccefe864736f6c63430008090033",
  "linkReferences": {},
  "deployedLinkReferences": {}
}