{
  "_format": "hh-sol-artifact-1",
  "contractName": "Sandbox1",
  "sourceName": "contracts/Sandbox.sol",
  "abi": [
    {
      "inputs": [
        {
          "internalType": "string",
          "name": "_name",
          "type": "string"
        },
        {
          "internalType": "string",
          "name": "_symbol",
          "type": "string"
        },
        {
          "internalType": "uint64",
          "name": "publicPrice_",
          "type": "uint64"
        },
        {
          "internalType": "uint256",
          "name": "collectionSize_",
          "type": "uint256"
        }
      ],
      "stateMutability": "nonpayable",
      "type": "constructor"
    },
    {
      "anonymous": false,
      "inputs": [
        {
          "indexed": true,
          "internalType": "address",
          "name": "owner",
          "type": "address"
        },
        {
          "indexed": true,
          "internalType": "address",
          "name": "approved",
          "type": "address"
        },
        {
          "indexed": true,
          "internalType": "uint256",
          "name": "tokenId",
          "type": "uint256"
        }
      ],
      "name": "Approval",
      "type": "event"
    },
    {
      "anonymous": false,
      "inputs": [
        {
          "indexed": true,
          "internalType": "address",
          "name": "owner",
          "type": "address"
        },
        {
          "indexed": true,
          "internalType": "address",
          "name": "operator",
          "type": "address"
        },
        {
          "indexed": false,
          "internalType": "bool",
          "name": "approved",
          "type": "bool"
        }
      ],
      "name": "ApprovalForAll",
      "type": "event"
    },
    {
      "anonymous": false,
      "inputs": [
        {
          "indexed": true,
          "internalType": "address",
          "name": "_from",
          "type": "address"
        },
        {
          "indexed": false,
          "internalType": "uint256",
          "name": "_tokenId",
          "type": "uint256"
        }
      ],
      "name": "Minted",
      "type": "event"
    },
    {
      "anonymous": false,
      "inputs": [
        {
          "indexed": true,
          "internalType": "address",
          "name": "from",
          "type": "address"
        },
        {
          "indexed": true,
          "internalType": "address",
          "name": "to",
          "type": "address"
        },
        {
          "indexed": true,
          "internalType": "uint256",
          "name": "tokenId",
          "type": "uint256"
        }
      ],
      "name": "Transfer",
      "type": "event"
    },
    {
      "inputs": [
        {
          "internalType": "address",
          "name": "to",
          "type": "address"
        },
        {
          "internalType": "uint256",
          "name": "tokenId",
          "type": "uint256"
        }
      ],
      "name": "approve",
      "outputs": [],
      "stateMutability": "nonpayable",
      "type": "function"
    },
    {
      "inputs": [
        {
          "internalType": "address",
          "name": "owner",
          "type": "address"
        }
      ],
      "name": "balanceOf",
      "outputs": [
        {
          "internalType": "uint256",
          "name": "",
          "type": "uint256"
        }
      ],
      "stateMutability": "view",
      "type": "function"
    },
    {
      "inputs": [
        {
          "internalType": "uint256",
          "name": "tokenId",
          "type": "uint256"
        }
      ],
      "name": "getApproved",
      "outputs": [
        {
          "internalType": "address",
          "name": "",
          "type": "address"
        }
      ],
      "stateMutability": "view",
      "type": "function"
    },
    {
      "inputs": [
        {
          "internalType": "address",
          "name": "owner",
          "type": "address"
        },
        {
          "internalType": "address",
          "name": "operator",
          "type": "address"
        }
      ],
      "name": "isApprovedForAll",
      "outputs": [
        {
          "internalType": "bool",
          "name": "",
          "type": "bool"
        }
      ],
      "stateMutability": "view",
      "type": "function"
    },
    {
      "inputs": [],
      "name": "mint",
      "outputs": [],
      "stateMutability": "payable",
      "type": "function"
    },
    {
      "inputs": [],
      "name": "name",
      "outputs": [
        {
          "internalType": "string",
          "name": "",
          "type": "string"
        }
      ],
      "stateMutability": "view",
      "type": "function"
    },
    {
      "inputs": [],
      "name": "notRevealedUri",
      "outputs": [
        {
          "internalType": "string",
          "name": "",
          "type": "string"
        }
      ],
      "stateMutability": "view",
      "type": "function"
    },
    {
      "inputs": [],
      "name": "owner",
      "outputs": [
        {
          "internalType": "address",
          "name": "",
          "type": "address"
        }
      ],
      "stateMutability": "view",
      "type": "function"
    },
    {
      "inputs": [
        {
          "internalType": "uint256",
          "name": "tokenId",
          "type": "uint256"
        }
      ],
      "name": "ownerOf",
      "outputs": [
        {
          "internalType": "address",
          "name": "",
          "type": "address"
        }
      ],
      "stateMutability": "view",
      "type": "function"
    },
    {
      "inputs": [],
      "name": "publicPrice",
      "outputs": [
        {
          "internalType": "uint64",
          "name": "",
          "type": "uint64"
        }
      ],
      "stateMutability": "view",
      "type": "function"
    },
    {
      "inputs": [],
      "name": "revealed",
      "outputs": [
        {
          "internalType": "bool",
          "name": "",
          "type": "bool"
        }
      ],
      "stateMutability": "view",
      "type": "function"
    },
    {
      "inputs": [
        {
          "internalType": "address",
          "name": "from",
          "type": "address"
        },
        {
          "internalType": "address",
          "name": "to",
          "type": "address"
        },
        {
          "internalType": "uint256",
          "name": "tokenId",
          "type": "uint256"
        }
      ],
      "name": "safeTransferFrom",
      "outputs": [],
      "stateMutability": "nonpayable",
      "type": "function"
    },
    {
      "inputs": [
        {
          "internalType": "address",
          "name": "from",
          "type": "address"
        },
        {
          "internalType": "address",
          "name": "to",
          "type": "address"
        },
        {
          "internalType": "uint256",
          "name": "tokenId",
          "type": "uint256"
        },
        {
          "internalType": "bytes",
          "name": "_data",
          "type": "bytes"
        }
      ],
      "name": "safeTransferFrom",
      "outputs": [],
      "stateMutability": "nonpayable",
      "type": "function"
    },
    {
      "inputs": [
        {
          "internalType": "address[]",
          "name": "addresses",
          "type": "address[]"
        },
        {
          "internalType": "uint256[]",
          "name": "numSlots",
          "type": "uint256[]"
        }
      ],
      "name": "seedWhitelist",
      "outputs": [],
      "stateMutability": "nonpayable",
      "type": "function"
    },
    {
      "inputs": [
        {
          "internalType": "address",
          "name": "operator",
          "type": "address"
        },
        {
          "internalType": "bool",
          "name": "approved",
          "type": "bool"
        }
      ],
      "name": "setApprovalForAll",
      "outputs": [],
      "stateMutability": "nonpayable",
      "type": "function"
    },
    {
      "inputs": [
        {
          "internalType": "string",
          "name": "baseURI",
          "type": "string"
        }
      ],
      "name": "setBaseURI",
      "outputs": [],
      "stateMutability": "nonpayable",
      "type": "function"
    },
    {
      "inputs": [
        {
          "internalType": "bool",
          "name": "isWhitelistPhase_",
          "type": "bool"
        }
      ],
      "name": "setPhase",
      "outputs": [],
      "stateMutability": "nonpayable",
      "type": "function"
    },
    {
      "inputs": [
        {
          "internalType": "uint64",
          "name": "publicPrice_",
          "type": "uint64"
        }
      ],
      "name": "setPublicPrice",
      "outputs": [],
      "stateMutability": "nonpayable",
      "type": "function"
    },
    {
      "inputs": [
        {
          "internalType": "uint256",
          "name": "publicSaleStartTime_",
          "type": "uint256"
        }
      ],
      "name": "setPublicSaleStartTime",
      "outputs": [],
      "stateMutability": "nonpayable",
      "type": "function"
    },
    {
      "inputs": [
        {
          "internalType": "bool",
          "name": "reveal_",
          "type": "bool"
        }
      ],
      "name": "setReveal",
      "outputs": [],
      "stateMutability": "nonpayable",
      "type": "function"
    },
    {
      "inputs": [
        {
          "internalType": "bytes4",
          "name": "interfaceId",
          "type": "bytes4"
        }
      ],
      "name": "supportsInterface",
      "outputs": [
        {
          "internalType": "bool",
          "name": "",
          "type": "bool"
        }
      ],
      "stateMutability": "view",
      "type": "function"
    },
    {
      "inputs": [],
      "name": "symbol",
      "outputs": [
        {
          "internalType": "string",
          "name": "",
          "type": "string"
        }
      ],
      "stateMutability": "view",
      "type": "function"
    },
    {
      "inputs": [
        {
          "internalType": "uint256",
          "name": "index",
          "type": "uint256"
        }
      ],
      "name": "tokenByIndex",
      "outputs": [
        {
          "internalType": "uint256",
          "name": "",
          "type": "uint256"
        }
      ],
      "stateMutability": "view",
      "type": "function"
    },
    {
      "inputs": [
        {
          "internalType": "address",
          "name": "owner",
          "type": "address"
        },
        {
          "internalType": "uint256",
          "name": "index",
          "type": "uint256"
        }
      ],
      "name": "tokenOfOwnerByIndex",
      "outputs": [
        {
          "internalType": "uint256",
          "name": "",
          "type": "uint256"
        }
      ],
      "stateMutability": "view",
      "type": "function"
    },
    {
      "inputs": [
        {
          "internalType": "uint256",
          "name": "tokenId",
          "type": "uint256"
        }
      ],
      "name": "tokenURI",
      "outputs": [
        {
          "internalType": "string",
          "name": "",
          "type": "string"
        }
      ],
      "stateMutability": "view",
      "type": "function"
    },
    {
      "inputs": [],
      "name": "totalSupply",
      "outputs": [
        {
          "internalType": "uint256",
          "name": "",
          "type": "uint256"
        }
      ],
      "stateMutability": "view",
      "type": "function"
    },
    {
      "inputs": [
        {
          "internalType": "address",
          "name": "from",
          "type": "address"
        },
        {
          "internalType": "address",
          "name": "to",
          "type": "address"
        },
        {
          "internalType": "uint256",
          "name": "tokenId",
          "type": "uint256"
        }
      ],
      "name": "transferFrom",
      "outputs": [],
      "stateMutability": "nonpayable",
      "type": "function"
    },
    {
      "inputs": [
        {
          "internalType": "address",
          "name": "",
          "type": "address"
        }
      ],
      "name": "whitelist",
      "outputs": [
        {
          "internalType": "uint256",
          "name": "",
          "type": "uint256"
        }
      ],
      "stateMutability": "view",
      "type": "function"
    },
    {
      "inputs": [],
      "name": "withdraw",
      "outputs": [],
      "stateMutability": "nonpayable",
      "type": "function"
    }
  ],
  "bytecode": "0x60806040526000600e60006101000a81548160ff02191690831515021790555060405180608001604052806050815260200162004c1160509139600f9080519060200190620000509291906200018d565b506001601160086101000a81548160ff0219169083151502179055503480156200007957600080fd5b5060405162004cb238038062004cb283398181016040528101906200009f91906200045a565b83838160009080519060200190620000b99291906200018d565b508060019080519060200190620000d29291906200018d565b50505033600b60006101000a81548173ffffffffffffffffffffffffffffffffffffffff021916908373ffffffffffffffffffffffffffffffffffffffff16021790555081601160006101000a81548167ffffffffffffffff021916908367ffffffffffffffff16021790555080600c8190555063628a10a960108190555060405180608001604052806051815260200162004c616051913960129080519060200190620001829291906200018d565b50505050506200056f565b8280546200019b9062000539565b90600052602060002090601f016020900481019282620001bf57600085556200020b565b82601f10620001da57805160ff19168380011785556200020b565b828001600101855582156200020b579182015b828111156200020a578251825591602001919060010190620001ed565b5b5090506200021a91906200021e565b5090565b5b80821115620002395760008160009055506001016200021f565b5090565b6000604051905090565b600080fd5b600080fd5b600080fd5b600080fd5b6000601f19601f8301169050919050565b7f4e487b7100000000000000000000000000000000000000000000000000000000600052604160045260246000fd5b620002a6826200025b565b810181811067ffffffffffffffff82111715620002c857620002c76200026c565b5b80604052505050565b6000620002dd6200023d565b9050620002eb82826200029b565b919050565b600067ffffffffffffffff8211156200030e576200030d6200026c565b5b62000319826200025b565b9050602081019050919050565b60005b838110156200034657808201518184015260208101905062000329565b8381111562000356576000848401525b50505050565b6000620003736200036d84620002f0565b620002d1565b90508281526020810184848401111562000392576200039162000256565b5b6200039f84828562000326565b509392505050565b600082601f830112620003bf57620003be62000251565b5b8151620003d18482602086016200035c565b91505092915050565b600067ffffffffffffffff82169050919050565b620003f981620003da565b81146200040557600080fd5b50565b6000815190506200041981620003ee565b92915050565b6000819050919050565b62000434816200041f565b81146200044057600080fd5b50565b600081519050620004548162000429565b92915050565b6000806000806080858703121562000477576200047662000247565b5b600085015167ffffffffffffffff8111156200049857620004976200024c565b5b620004a687828801620003a7565b945050602085015167ffffffffffffffff811115620004ca57620004c96200024c565b5b620004d887828801620003a7565b9350506040620004eb8782880162000408565b9250506060620004fe8782880162000443565b91505092959194509250565b7f4e487b7100000000000000000000000000000000000000000000000000000000600052602260045260246000fd5b600060028204905060018216806200055257607f821691505b602082108114156200056957620005686200050a565b5b50919050565b614692806200057f6000396000f3fe6080604052600436106101c25760003560e01c806351830227116100f75780639b19251a11610095578063b88d4fde11610064578063b88d4fde14610631578063c87b56dd1461065a578063e985e9c514610697578063f0e47b13146106d4576101c2565b80639b19251a14610577578063a22cb465146105b4578063a945bf80146105dd578063ab58070014610608576101c2565b80636d5d40c6116100d15780636d5d40c6146104bb57806370a08231146104e45780638da5cb5b1461052157806395d89b411461054c576101c2565b8063518302271461042a57806355f804b3146104555780636352211e1461047e576101c2565b806318160ddd116101645780632f745c591161013e5780632f745c59146103705780633ccfd60b146103ad57806342842e0e146103c45780634f6ccce7146103ed576101c2565b806318160ddd146102f357806323b872dd1461031e5780632a3f300c14610347576101c2565b8063081c8c44116101a0578063081c8c441461026c578063095ea7b3146102975780630c29dbae146102c05780631249c58b146102e9576101c2565b806301ffc9a7146101c757806306fdde0314610204578063081812fc1461022f575b600080fd5b3480156101d357600080fd5b506101ee60048036038101906101e99190612d03565b6106fd565b6040516101fb9190612d4b565b60405180910390f35b34801561021057600080fd5b50610219610777565b6040516102269190612dff565b60405180910390f35b34801561023b57600080fd5b5061025660048036038101906102519190612e57565b610809565b6040516102639190612ec5565b60405180910390f35b34801561027857600080fd5b5061028161088e565b60405161028e9190612dff565b60405180910390f35b3480156102a357600080fd5b506102be60048036038101906102b99190612f0c565b61091c565b005b3480156102cc57600080fd5b506102e760048036038101906102e29190612f8c565b610a34565b005b6102f1610af0565b005b3480156102ff57600080fd5b50610308610e25565b6040516103159190612fc8565b60405180910390f35b34801561032a57600080fd5b5061034560048036038101906103409190612fe3565b610e32565b005b34801561035357600080fd5b5061036e60048036038101906103699190613062565b610e92565b005b34801561037c57600080fd5b5061039760048036038101906103929190612f0c565b610f3f565b6040516103a49190612fc8565b60405180910390f35b3480156103b957600080fd5b506103c2610fe4565b005b3480156103d057600080fd5b506103eb60048036038101906103e69190612fe3565b611114565b005b3480156103f957600080fd5b50610414600480360381019061040f9190612e57565b611134565b6040516104219190612fc8565b60405180910390f35b34801561043657600080fd5b5061043f6111a5565b60405161044c9190612d4b565b60405180910390f35b34801561046157600080fd5b5061047c600480360381019061047791906130f4565b6111b8565b005b34801561048a57600080fd5b506104a560048036038101906104a09190612e57565b61125e565b6040516104b29190612ec5565b60405180910390f35b3480156104c757600080fd5b506104e260048036038101906104dd9190612e57565b611310565b005b3480156104f057600080fd5b5061050b60048036038101906105069190613141565b6113aa565b6040516105189190612fc8565b60405180910390f35b34801561052d57600080fd5b50610536611462565b6040516105439190612ec5565b60405180910390f35b34801561055857600080fd5b50610561611488565b60405161056e9190612dff565b60405180910390f35b34801561058357600080fd5b5061059e60048036038101906105999190613141565b61151a565b6040516105ab9190612fc8565b60405180910390f35b3480156105c057600080fd5b506105db60048036038101906105d6919061316e565b611532565b005b3480156105e957600080fd5b506105f2611548565b6040516105ff91906131bd565b60405180910390f35b34801561061457600080fd5b5061062f600480360381019061062a91906133d9565b611562565b005b34801561063d57600080fd5b5061065860048036038101906106539190613506565b6116d2565b005b34801561066657600080fd5b50610681600480360381019061067c9190612e57565b611734565b60405161068e9190612dff565b60405180910390f35b3480156106a357600080fd5b506106be60048036038101906106b99190613589565b61183d565b6040516106cb9190612d4b565b60405180910390f35b3480156106e057600080fd5b506106fb60048036038101906106f69190613062565b6118d1565b005b60007f780e9d63000000000000000000000000000000000000000000000000000000007bffffffffffffffffffffffffffffffffffffffffffffffffffffffff1916827bffffffffffffffffffffffffffffffffffffffffffffffffffffffff19161480610770575061076f8261197e565b5b9050919050565b606060008054610786906135f8565b80601f01602080910402602001604051908101604052809291908181526020018280546107b2906135f8565b80156107ff5780601f106107d4576101008083540402835291602001916107ff565b820191906000526020600020905b8154815290600101906020018083116107e257829003601f168201915b5050505050905090565b600061081482611a60565b610853576040517f08c379a000000000000000000000000000000000000000000000000000000000815260040161084a9061369c565b60405180910390fd5b6004600083815260200190815260200160002060009054906101000a900473ffffffffffffffffffffffffffffffffffffffff169050919050565b600f805461089b906135f8565b80601f01602080910402602001604051908101604052809291908181526020018280546108c7906135f8565b80156109145780601f106108e957610100808354040283529160200191610914565b820191906000526020600020905b8154815290600101906020018083116108f757829003601f168201915b505050505081565b60006109278261125e565b90508073ffffffffffffffffffffffffffffffffffffffff168373ffffffffffffffffffffffffffffffffffffffff161415610998576040517f08c379a000000000000000000000000000000000000000000000000000000000815260040161098f9061372e565b60405180910390fd5b8073ffffffffffffffffffffffffffffffffffffffff166109b7611acc565b73ffffffffffffffffffffffffffffffffffffffff1614806109e657506109e5816109e0611acc565b61183d565b5b610a25576040517f08c379a0000000000000000000000000000000000000000000000000000000008152600401610a1c906137c0565b60405180910390fd5b610a2f8383611ad4565b505050565b3373ffffffffffffffffffffffffffffffffffffffff16600b60009054906101000a900473ffffffffffffffffffffffffffffffffffffffff1673ffffffffffffffffffffffffffffffffffffffff1614610ac4576040517f08c379a0000000000000000000000000000000000000000000000000000000008152600401610abb9061382c565b60405180910390fd5b80601160006101000a81548167ffffffffffffffff021916908367ffffffffffffffff16021790555050565b3373ffffffffffffffffffffffffffffffffffffffff163273ffffffffffffffffffffffffffffffffffffffff1614610b5e576040517f08c379a0000000000000000000000000000000000000000000000000000000008152600401610b5590613898565b60405180910390fd5b6000601160009054906101000a900467ffffffffffffffff1667ffffffffffffffff161415610bc2576040517f08c379a0000000000000000000000000000000000000000000000000000000008152600401610bb990613904565b60405180910390fd5b600060105414158015610bd757506010544210155b610c16576040517f08c379a0000000000000000000000000000000000000000000000000000000008152600401610c0d90613970565b60405180910390fd5b600c54610c23600a611b8d565b10610c63576040517f08c379a0000000000000000000000000000000000000000000000000000000008152600401610c5a906139dc565b60405180910390fd5b601160009054906101000a900467ffffffffffffffff1667ffffffffffffffff163414610cc5576040517f08c379a0000000000000000000000000000000000000000000000000000000008152600401610cbc90613a48565b60405180910390fd5b601160089054906101000a900460ff1615610db2576000600d60003373ffffffffffffffffffffffffffffffffffffffff1673ffffffffffffffffffffffffffffffffffffffff1681526020019081526020016000205411610d5c576040517f08c379a0000000000000000000000000000000000000000000000000000000008152600401610d5390613ab4565b60405180910390fd5b600d60003373ffffffffffffffffffffffffffffffffffffffff1673ffffffffffffffffffffffffffffffffffffffff1681526020019081526020016000206000815480929190610dac90613b03565b91905055505b610dbc600a611b9b565b6000610dc8600a611b8d565b9050610dd43382611bb1565b3373ffffffffffffffffffffffffffffffffffffffff167f30385c845b448a36257a6a1716e6ad2e1bc2cbe333cde1e69fe849ad6511adfe82604051610e1a9190612fc8565b60405180910390a250565b6000600880549050905090565b610e43610e3d611acc565b82611bcf565b610e82576040517f08c379a0000000000000000000000000000000000000000000000000000000008152600401610e7990613b9f565b60405180910390fd5b610e8d838383611cad565b505050565b3373ffffffffffffffffffffffffffffffffffffffff16600b60009054906101000a900473ffffffffffffffffffffffffffffffffffffffff1673ffffffffffffffffffffffffffffffffffffffff1614610f22576040517f08c379a0000000000000000000000000000000000000000000000000000000008152600401610f199061382c565b60405180910390fd5b80600e60006101000a81548160ff02191690831515021790555050565b6000610f4a836113aa565b8210610f8b576040517f08c379a0000000000000000000000000000000000000000000000000000000008152600401610f8290613c31565b60405180910390fd5b600660008473ffffffffffffffffffffffffffffffffffffffff1673ffffffffffffffffffffffffffffffffffffffff168152602001908152602001600020600083815260200190815260200160002054905092915050565b600073aa04355323a3beb161161c281a802575d163e66873ffffffffffffffffffffffffffffffffffffffff166064601e476110209190613c51565b61102a9190613cda565b60405161103690613d3c565b60006040518083038185875af1925050503d8060008114611073576040519150601f19603f3d011682016040523d82523d6000602084013e611078565b606091505b505090508061108657600080fd5b60007348064ef45b66f94d4bd4edefe703b8e09d23740673ffffffffffffffffffffffffffffffffffffffff16476040516110c090613d3c565b60006040518083038185875af1925050503d80600081146110fd576040519150601f19603f3d011682016040523d82523d6000602084013e611102565b606091505b505090508061111057600080fd5b5050565b61112f838383604051806020016040528060008152506116d2565b505050565b600061113e610e25565b821061117f576040517f08c379a000000000000000000000000000000000000000000000000000000000815260040161117690613dc3565b60405180910390fd5b6008828154811061119357611192613de3565b5b90600052602060002001549050919050565b600e60009054906101000a900460ff1681565b3373ffffffffffffffffffffffffffffffffffffffff16600b60009054906101000a900473ffffffffffffffffffffffffffffffffffffffff1673ffffffffffffffffffffffffffffffffffffffff1614611248576040517f08c379a000000000000000000000000000000000000000000000000000000000815260040161123f9061382c565b60405180910390fd5b818160129190611259929190612bf4565b505050565b6000806002600084815260200190815260200160002060009054906101000a900473ffffffffffffffffffffffffffffffffffffffff169050600073ffffffffffffffffffffffffffffffffffffffff168173ffffffffffffffffffffffffffffffffffffffff161415611307576040517f08c379a00000000000000000000000000000000000000000000000000000000081526004016112fe90613e84565b60405180910390fd5b80915050919050565b3373ffffffffffffffffffffffffffffffffffffffff16600b60009054906101000a900473ffffffffffffffffffffffffffffffffffffffff1673ffffffffffffffffffffffffffffffffffffffff16146113a0576040517f08c379a00000000000000000000000000000000000000000000000000000000081526004016113979061382c565b60405180910390fd5b8060108190555050565b60008073ffffffffffffffffffffffffffffffffffffffff168273ffffffffffffffffffffffffffffffffffffffff16141561141b576040517f08c379a000000000000000000000000000000000000000000000000000000000815260040161141290613f16565b60405180910390fd5b600360008373ffffffffffffffffffffffffffffffffffffffff1673ffffffffffffffffffffffffffffffffffffffff168152602001908152602001600020549050919050565b600b60009054906101000a900473ffffffffffffffffffffffffffffffffffffffff1681565b606060018054611497906135f8565b80601f01602080910402602001604051908101604052809291908181526020018280546114c3906135f8565b80156115105780601f106114e557610100808354040283529160200191611510565b820191906000526020600020905b8154815290600101906020018083116114f357829003601f168201915b5050505050905090565b600d6020528060005260406000206000915090505481565b61154461153d611acc565b8383611f14565b5050565b601160009054906101000a900467ffffffffffffffff1681565b3373ffffffffffffffffffffffffffffffffffffffff16600b60009054906101000a900473ffffffffffffffffffffffffffffffffffffffff1673ffffffffffffffffffffffffffffffffffffffff16146115f2576040517f08c379a00000000000000000000000000000000000000000000000000000000081526004016115e99061382c565b60405180910390fd5b8051825114611636576040517f08c379a000000000000000000000000000000000000000000000000000000000815260040161162d90613fa8565b60405180910390fd5b60005b82518110156116cd5781818151811061165557611654613de3565b5b6020026020010151600d600085848151811061167457611673613de3565b5b602002602001015173ffffffffffffffffffffffffffffffffffffffff1673ffffffffffffffffffffffffffffffffffffffff1681526020019081526020016000208190555080806116c590613fc8565b915050611639565b505050565b6116e36116dd611acc565b83611bcf565b611722576040517f08c379a000000000000000000000000000000000000000000000000000000000815260040161171990613b9f565b60405180910390fd5b61172e84848484612081565b50505050565b606061173f82611a60565b61177e576040517f08c379a000000000000000000000000000000000000000000000000000000000815260040161177590614083565b60405180910390fd5b60001515600e60009054906101000a900460ff161515141561182c57600f80546117a7906135f8565b80601f01602080910402602001604051908101604052809291908181526020018280546117d3906135f8565b80156118205780601f106117f557610100808354040283529160200191611820565b820191906000526020600020905b81548152906001019060200180831161180357829003601f168201915b50505050509050611838565b611835826120dd565b90505b919050565b6000600560008473ffffffffffffffffffffffffffffffffffffffff1673ffffffffffffffffffffffffffffffffffffffff16815260200190815260200160002060008373ffffffffffffffffffffffffffffffffffffffff1673ffffffffffffffffffffffffffffffffffffffff16815260200190815260200160002060009054906101000a900460ff16905092915050565b3373ffffffffffffffffffffffffffffffffffffffff16600b60009054906101000a900473ffffffffffffffffffffffffffffffffffffffff1673ffffffffffffffffffffffffffffffffffffffff1614611961576040517f08c379a00000000000000000000000000000000000000000000000000000000081526004016119589061382c565b60405180910390fd5b80601160086101000a81548160ff02191690831515021790555050565b60007f80ac58cd000000000000000000000000000000000000000000000000000000007bffffffffffffffffffffffffffffffffffffffffffffffffffffffff1916827bffffffffffffffffffffffffffffffffffffffffffffffffffffffff19161480611a4957507f5b5e139f000000000000000000000000000000000000000000000000000000007bffffffffffffffffffffffffffffffffffffffffffffffffffffffff1916827bffffffffffffffffffffffffffffffffffffffffffffffffffffffff1916145b80611a595750611a5882612184565b5b9050919050565b60008073ffffffffffffffffffffffffffffffffffffffff166002600084815260200190815260200160002060009054906101000a900473ffffffffffffffffffffffffffffffffffffffff1673ffffffffffffffffffffffffffffffffffffffff1614159050919050565b600033905090565b816004600083815260200190815260200160002060006101000a81548173ffffffffffffffffffffffffffffffffffffffff021916908373ffffffffffffffffffffffffffffffffffffffff160217905550808273ffffffffffffffffffffffffffffffffffffffff16611b478361125e565b73ffffffffffffffffffffffffffffffffffffffff167f8c5be1e5ebec7d5bd14f71427d1e84f3dd0314c0f7b2291e5b200ac8c7c3b92560405160405180910390a45050565b600081600001549050919050565b6001816000016000828254019250508190555050565b611bcb8282604051806020016040528060008152506121ee565b5050565b6000611bda82611a60565b611c19576040517f08c379a0000000000000000000000000000000000000000000000000000000008152600401611c1090614115565b60405180910390fd5b6000611c248361125e565b90508073ffffffffffffffffffffffffffffffffffffffff168473ffffffffffffffffffffffffffffffffffffffff161480611c665750611c65818561183d565b5b80611ca457508373ffffffffffffffffffffffffffffffffffffffff16611c8c84610809565b73ffffffffffffffffffffffffffffffffffffffff16145b91505092915050565b8273ffffffffffffffffffffffffffffffffffffffff16611ccd8261125e565b73ffffffffffffffffffffffffffffffffffffffff1614611d23576040517f08c379a0000000000000000000000000000000000000000000000000000000008152600401611d1a906141a7565b60405180910390fd5b600073ffffffffffffffffffffffffffffffffffffffff168273ffffffffffffffffffffffffffffffffffffffff161415611d93576040517f08c379a0000000000000000000000000000000000000000000000000000000008152600401611d8a90614239565b60405180910390fd5b611d9e838383612249565b611da9600082611ad4565b6001600360008573ffffffffffffffffffffffffffffffffffffffff1673ffffffffffffffffffffffffffffffffffffffff1681526020019081526020016000206000828254611df99190614259565b925050819055506001600360008473ffffffffffffffffffffffffffffffffffffffff1673ffffffffffffffffffffffffffffffffffffffff1681526020019081526020016000206000828254611e50919061428d565b92505081905550816002600083815260200190815260200160002060006101000a81548173ffffffffffffffffffffffffffffffffffffffff021916908373ffffffffffffffffffffffffffffffffffffffff160217905550808273ffffffffffffffffffffffffffffffffffffffff168473ffffffffffffffffffffffffffffffffffffffff167fddf252ad1be2c89b69c2b068fc378daa952ba7f163c4a11628f55a4df523b3ef60405160405180910390a4611f0f83838361235d565b505050565b8173ffffffffffffffffffffffffffffffffffffffff168373ffffffffffffffffffffffffffffffffffffffff161415611f83576040517f08c379a0000000000000000000000000000000000000000000000000000000008152600401611f7a9061432f565b60405180910390fd5b80600560008573ffffffffffffffffffffffffffffffffffffffff1673ffffffffffffffffffffffffffffffffffffffff16815260200190815260200160002060008473ffffffffffffffffffffffffffffffffffffffff1673ffffffffffffffffffffffffffffffffffffffff16815260200190815260200160002060006101000a81548160ff0219169083151502179055508173ffffffffffffffffffffffffffffffffffffffff168373ffffffffffffffffffffffffffffffffffffffff167f17307eab39ab6107e8899845ad3d59bd9653f200f220920489ca2b5937696c31836040516120749190612d4b565b60405180910390a3505050565b61208c848484611cad565b61209884848484612362565b6120d7576040517f08c379a00000000000000000000000000000000000000000000000000000000081526004016120ce906143c1565b60405180910390fd5b50505050565b60606120e882611a60565b612127576040517f08c379a000000000000000000000000000000000000000000000000000000000815260040161211e90614083565b60405180910390fd5b60006121316124f9565b90506000815111612151576040518060200160405280600081525061217c565b8061215b8461258b565b60405160200161216c92919061441d565b6040516020818303038152906040525b915050919050565b60007f01ffc9a7000000000000000000000000000000000000000000000000000000007bffffffffffffffffffffffffffffffffffffffffffffffffffffffff1916827bffffffffffffffffffffffffffffffffffffffffffffffffffffffff1916149050919050565b6121f883836126ec565b6122056000848484612362565b612244576040517f08c379a000000000000000000000000000000000000000000000000000000000815260040161223b906143c1565b60405180910390fd5b505050565b6122548383836128c6565b600073ffffffffffffffffffffffffffffffffffffffff168373ffffffffffffffffffffffffffffffffffffffff16141561229757612292816128cb565b6122d6565b8173ffffffffffffffffffffffffffffffffffffffff168373ffffffffffffffffffffffffffffffffffffffff16146122d5576122d48382612914565b5b5b600073ffffffffffffffffffffffffffffffffffffffff168273ffffffffffffffffffffffffffffffffffffffff1614156123195761231481612a81565b612358565b8273ffffffffffffffffffffffffffffffffffffffff168273ffffffffffffffffffffffffffffffffffffffff1614612357576123568282612b52565b5b5b505050565b505050565b60006123838473ffffffffffffffffffffffffffffffffffffffff16612bd1565b156124ec578373ffffffffffffffffffffffffffffffffffffffff1663150b7a026123ac611acc565b8786866040518563ffffffff1660e01b81526004016123ce9493929190614496565b602060405180830381600087803b1580156123e857600080fd5b505af192505050801561241957506040513d601f19601f8201168201806040525081019061241691906144f7565b60015b61249c573d8060008114612449576040519150601f19603f3d011682016040523d82523d6000602084013e61244e565b606091505b50600081511415612494576040517f08c379a000000000000000000000000000000000000000000000000000000000815260040161248b906143c1565b60405180910390fd5b805181602001fd5b63150b7a0260e01b7bffffffffffffffffffffffffffffffffffffffffffffffffffffffff1916817bffffffffffffffffffffffffffffffffffffffffffffffffffffffff1916149150506124f1565b600190505b949350505050565b606060128054612508906135f8565b80601f0160208091040260200160405190810160405280929190818152602001828054612534906135f8565b80156125815780601f1061255657610100808354040283529160200191612581565b820191906000526020600020905b81548152906001019060200180831161256457829003601f168201915b5050505050905090565b606060008214156125d3576040518060400160405280600181526020017f300000000000000000000000000000000000000000000000000000000000000081525090506126e7565b600082905060005b600082146126055780806125ee90613fc8565b915050600a826125fe9190613cda565b91506125db565b60008167ffffffffffffffff811115612621576126206131d8565b5b6040519080825280601f01601f1916602001820160405280156126535781602001600182028036833780820191505090505b5090505b600085146126e05760018261266c9190614259565b9150600a8561267b9190614524565b6030612687919061428d565b60f81b81838151811061269d5761269c613de3565b5b60200101907effffffffffffffffffffffffffffffffffffffffffffffffffffffffffffff1916908160001a905350600a856126d99190613cda565b9450612657565b8093505050505b919050565b600073ffffffffffffffffffffffffffffffffffffffff168273ffffffffffffffffffffffffffffffffffffffff16141561275c576040517f08c379a0000000000000000000000000000000000000000000000000000000008152600401612753906145a1565b60405180910390fd5b61276581611a60565b156127a5576040517f08c379a000000000000000000000000000000000000000000000000000000000815260040161279c9061460d565b60405180910390fd5b6127b160008383612249565b6001600360008473ffffffffffffffffffffffffffffffffffffffff1673ffffffffffffffffffffffffffffffffffffffff1681526020019081526020016000206000828254612801919061428d565b92505081905550816002600083815260200190815260200160002060006101000a81548173ffffffffffffffffffffffffffffffffffffffff021916908373ffffffffffffffffffffffffffffffffffffffff160217905550808273ffffffffffffffffffffffffffffffffffffffff16600073ffffffffffffffffffffffffffffffffffffffff167fddf252ad1be2c89b69c2b068fc378daa952ba7f163c4a11628f55a4df523b3ef60405160405180910390a46128c26000838361235d565b5050565b505050565b6008805490506009600083815260200190815260200160002081905550600881908060018154018082558091505060019003906000526020600020016000909190919091505550565b60006001612921846113aa565b61292b9190614259565b9050600060076000848152602001908152602001600020549050818114612a10576000600660008673ffffffffffffffffffffffffffffffffffffffff1673ffffffffffffffffffffffffffffffffffffffff168152602001908152602001600020600084815260200190815260200160002054905080600660008773ffffffffffffffffffffffffffffffffffffffff1673ffffffffffffffffffffffffffffffffffffffff168152602001908152602001600020600084815260200190815260200160002081905550816007600083815260200190815260200160002081905550505b6007600084815260200190815260200160002060009055600660008573ffffffffffffffffffffffffffffffffffffffff1673ffffffffffffffffffffffffffffffffffffffff16815260200190815260200160002060008381526020019081526020016000206000905550505050565b60006001600880549050612a959190614259565b9050600060096000848152602001908152602001600020549050600060088381548110612ac557612ac4613de3565b5b906000526020600020015490508060088381548110612ae757612ae6613de3565b5b906000526020600020018190555081600960008381526020019081526020016000208190555060096000858152602001908152602001600020600090556008805480612b3657612b3561462d565b5b6001900381819060005260206000200160009055905550505050565b6000612b5d836113aa565b905081600660008573ffffffffffffffffffffffffffffffffffffffff1673ffffffffffffffffffffffffffffffffffffffff168152602001908152602001600020600083815260200190815260200160002081905550806007600084815260200190815260200160002081905550505050565b6000808273ffffffffffffffffffffffffffffffffffffffff163b119050919050565b828054612c00906135f8565b90600052602060002090601f016020900481019282612c225760008555612c69565b82601f10612c3b57803560ff1916838001178555612c69565b82800160010185558215612c69579182015b82811115612c68578235825591602001919060010190612c4d565b5b509050612c769190612c7a565b5090565b5b80821115612c93576000816000905550600101612c7b565b5090565b6000604051905090565b600080fd5b600080fd5b60007fffffffff0000000000000000000000000000000000000000000000000000000082169050919050565b612ce081612cab565b8114612ceb57600080fd5b50565b600081359050612cfd81612cd7565b92915050565b600060208284031215612d1957612d18612ca1565b5b6000612d2784828501612cee565b91505092915050565b60008115159050919050565b612d4581612d30565b82525050565b6000602082019050612d606000830184612d3c565b92915050565b600081519050919050565b600082825260208201905092915050565b60005b83811015612da0578082015181840152602081019050612d85565b83811115612daf576000848401525b50505050565b6000601f19601f8301169050919050565b6000612dd182612d66565b612ddb8185612d71565b9350612deb818560208601612d82565b612df481612db5565b840191505092915050565b60006020820190508181036000830152612e198184612dc6565b905092915050565b6000819050919050565b612e3481612e21565b8114612e3f57600080fd5b50565b600081359050612e5181612e2b565b92915050565b600060208284031215612e6d57612e6c612ca1565b5b6000612e7b84828501612e42565b91505092915050565b600073ffffffffffffffffffffffffffffffffffffffff82169050919050565b6000612eaf82612e84565b9050919050565b612ebf81612ea4565b82525050565b6000602082019050612eda6000830184612eb6565b92915050565b612ee981612ea4565b8114612ef457600080fd5b50565b600081359050612f0681612ee0565b92915050565b60008060408385031215612f2357612f22612ca1565b5b6000612f3185828601612ef7565b9250506020612f4285828601612e42565b9150509250929050565b600067ffffffffffffffff82169050919050565b612f6981612f4c565b8114612f7457600080fd5b50565b600081359050612f8681612f60565b92915050565b600060208284031215612fa257612fa1612ca1565b5b6000612fb084828501612f77565b91505092915050565b612fc281612e21565b82525050565b6000602082019050612fdd6000830184612fb9565b92915050565b600080600060608486031215612ffc57612ffb612ca1565b5b600061300a86828701612ef7565b935050602061301b86828701612ef7565b925050604061302c86828701612e42565b9150509250925092565b61303f81612d30565b811461304a57600080fd5b50565b60008135905061305c81613036565b92915050565b60006020828403121561307857613077612ca1565b5b60006130868482850161304d565b91505092915050565b600080fd5b600080fd5b600080fd5b60008083601f8401126130b4576130b361308f565b5b8235905067ffffffffffffffff8111156130d1576130d0613094565b5b6020830191508360018202830111156130ed576130ec613099565b5b9250929050565b6000806020838503121561310b5761310a612ca1565b5b600083013567ffffffffffffffff81111561312957613128612ca6565b5b6131358582860161309e565b92509250509250929050565b60006020828403121561315757613156612ca1565b5b600061316584828501612ef7565b91505092915050565b6000806040838503121561318557613184612ca1565b5b600061319385828601612ef7565b92505060206131a48582860161304d565b9150509250929050565b6131b781612f4c565b82525050565b60006020820190506131d260008301846131ae565b92915050565b7f4e487b7100000000000000000000000000000000000000000000000000000000600052604160045260246000fd5b61321082612db5565b810181811067ffffffffffffffff8211171561322f5761322e6131d8565b5b80604052505050565b6000613242612c97565b905061324e8282613207565b919050565b600067ffffffffffffffff82111561326e5761326d6131d8565b5b602082029050602081019050919050565b600061329261328d84613253565b613238565b905080838252602082019050602084028301858111156132b5576132b4613099565b5b835b818110156132de57806132ca8882612ef7565b8452602084019350506020810190506132b7565b5050509392505050565b600082601f8301126132fd576132fc61308f565b5b813561330d84826020860161327f565b91505092915050565b600067ffffffffffffffff821115613331576133306131d8565b5b602082029050602081019050919050565b600061335561335084613316565b613238565b9050808382526020820190506020840283018581111561337857613377613099565b5b835b818110156133a1578061338d8882612e42565b84526020840193505060208101905061337a565b5050509392505050565b600082601f8301126133c0576133bf61308f565b5b81356133d0848260208601613342565b91505092915050565b600080604083850312156133f0576133ef612ca1565b5b600083013567ffffffffffffffff81111561340e5761340d612ca6565b5b61341a858286016132e8565b925050602083013567ffffffffffffffff81111561343b5761343a612ca6565b5b613447858286016133ab565b9150509250929050565b600080fd5b600067ffffffffffffffff821115613471576134706131d8565b5b61347a82612db5565b9050602081019050919050565b82818337600083830152505050565b60006134a96134a484613456565b613238565b9050828152602081018484840111156134c5576134c4613451565b5b6134d0848285613487565b509392505050565b600082601f8301126134ed576134ec61308f565b5b81356134fd848260208601613496565b91505092915050565b600080600080608085870312156135205761351f612ca1565b5b600061352e87828801612ef7565b945050602061353f87828801612ef7565b935050604061355087828801612e42565b925050606085013567ffffffffffffffff81111561357157613570612ca6565b5b61357d878288016134d8565b91505092959194509250565b600080604083850312156135a05761359f612ca1565b5b60006135ae85828601612ef7565b92505060206135bf85828601612ef7565b9150509250929050565b7f4e487b7100000000000000000000000000000000000000000000000000000000600052602260045260246000fd5b6000600282049050600182168061361057607f821691505b60208210811415613624576136236135c9565b5b50919050565b7f4552433732313a20617070726f76656420717565727920666f72206e6f6e657860008201527f697374656e7420746f6b656e0000000000000000000000000000000000000000602082015250565b6000613686602c83612d71565b91506136918261362a565b604082019050919050565b600060208201905081810360008301526136b581613679565b9050919050565b7f4552433732313a20617070726f76616c20746f2063757272656e74206f776e6560008201527f7200000000000000000000000000000000000000000000000000000000000000602082015250565b6000613718602183612d71565b9150613723826136bc565b604082019050919050565b600060208201905081810360008301526137478161370b565b9050919050565b7f4552433732313a20617070726f76652063616c6c6572206973206e6f74206f7760008201527f6e6572206e6f7220617070726f76656420666f7220616c6c0000000000000000602082015250565b60006137aa603883612d71565b91506137b58261374e565b604082019050919050565b600060208201905081810360008301526137d98161379d565b9050919050565b7f6e6f742061206f776e6572000000000000000000000000000000000000000000600082015250565b6000613816600b83612d71565b9150613821826137e0565b602082019050919050565b6000602082019050818103600083015261384581613809565b9050919050565b7f5468652063616c6c657220697320616e6f7468657220636f6e74726163740000600082015250565b6000613882601e83612d71565b915061388d8261384c565b602082019050919050565b600060208201905081810360008301526138b181613875565b9050919050565b7f5075626c69632073616c6520686173206e6f7420626567756e20796574000000600082015250565b60006138ee601d83612d71565b91506138f9826138b8565b602082019050919050565b6000602082019050818103600083015261391d816138e1565b9050919050565b7f73616c6520686173206e6f742073746172746564207965740000000000000000600082015250565b600061395a601883612d71565b915061396582613924565b602082019050919050565b600060208201905081810360008301526139898161394d565b9050919050565b7f536f6c64206f7574000000000000000000000000000000000000000000000000600082015250565b60006139c6600883612d71565b91506139d182613990565b602082019050919050565b600060208201905081810360008301526139f5816139b9565b9050919050565b7f4d696e7420636f73742069732077726f6e670000000000000000000000000000600082015250565b6000613a32601283612d71565b9150613a3d826139fc565b602082019050919050565b60006020820190508181036000830152613a6181613a25565b9050919050565b7f6e6f7420656c696769626c6520666f722077686974656c697374206d696e7400600082015250565b6000613a9e601f83612d71565b9150613aa982613a68565b602082019050919050565b60006020820190508181036000830152613acd81613a91565b9050919050565b7f4e487b7100000000000000000000000000000000000000000000000000000000600052601160045260246000fd5b6000613b0e82612e21565b91506000821415613b2257613b21613ad4565b5b600182039050919050565b7f4552433732313a207472616e736665722063616c6c6572206973206e6f74206f60008201527f776e6572206e6f7220617070726f766564000000000000000000000000000000602082015250565b6000613b89603183612d71565b9150613b9482613b2d565b604082019050919050565b60006020820190508181036000830152613bb881613b7c565b9050919050565b7f455243373231456e756d657261626c653a206f776e657220696e646578206f7560008201527f74206f6620626f756e6473000000000000000000000000000000000000000000602082015250565b6000613c1b602b83612d71565b9150613c2682613bbf565b604082019050919050565b60006020820190508181036000830152613c4a81613c0e565b9050919050565b6000613c5c82612e21565b9150613c6783612e21565b9250817fffffffffffffffffffffffffffffffffffffffffffffffffffffffffffffffff0483118215151615613ca057613c9f613ad4565b5b828202905092915050565b7f4e487b7100000000000000000000000000000000000000000000000000000000600052601260045260246000fd5b6000613ce582612e21565b9150613cf083612e21565b925082613d0057613cff613cab565b5b828204905092915050565b600081905092915050565b50565b6000613d26600083613d0b565b9150613d3182613d16565b600082019050919050565b6000613d4782613d19565b9150819050919050565b7f455243373231456e756d657261626c653a20676c6f62616c20696e646578206f60008201527f7574206f6620626f756e64730000000000000000000000000000000000000000602082015250565b6000613dad602c83612d71565b9150613db882613d51565b604082019050919050565b60006020820190508181036000830152613ddc81613da0565b9050919050565b7f4e487b7100000000000000000000000000000000000000000000000000000000600052603260045260246000fd5b7f4552433732313a206f776e657220717565727920666f72206e6f6e657869737460008201527f656e7420746f6b656e0000000000000000000000000000000000000000000000602082015250565b6000613e6e602983612d71565b9150613e7982613e12565b604082019050919050565b60006020820190508181036000830152613e9d81613e61565b9050919050565b7f4552433732313a2062616c616e636520717565727920666f7220746865207a6560008201527f726f206164647265737300000000000000000000000000000000000000000000602082015250565b6000613f00602a83612d71565b9150613f0b82613ea4565b604082019050919050565b60006020820190508181036000830152613f2f81613ef3565b9050919050565b7f61646472657373657320646f6573206e6f74206d61746368206e756d536c6f7460008201527f73206c656e677468000000000000000000000000000000000000000000000000602082015250565b6000613f92602883612d71565b9150613f9d82613f36565b604082019050919050565b60006020820190508181036000830152613fc181613f85565b9050919050565b6000613fd382612e21565b91507fffffffffffffffffffffffffffffffffffffffffffffffffffffffffffffffff82141561400657614005613ad4565b5b600182019050919050565b7f4552433732314d657461646174613a2055524920717565727920666f72206e6f60008201527f6e6578697374656e7420746f6b656e0000000000000000000000000000000000602082015250565b600061406d602f83612d71565b915061407882614011565b604082019050919050565b6000602082019050818103600083015261409c81614060565b9050919050565b7f4552433732313a206f70657261746f7220717565727920666f72206e6f6e657860008201527f697374656e7420746f6b656e0000000000000000000000000000000000000000602082015250565b60006140ff602c83612d71565b915061410a826140a3565b604082019050919050565b6000602082019050818103600083015261412e816140f2565b9050919050565b7f4552433732313a207472616e736665722066726f6d20696e636f72726563742060008201527f6f776e6572000000000000000000000000000000000000000000000000000000602082015250565b6000614191602583612d71565b915061419c82614135565b604082019050919050565b600060208201905081810360008301526141c081614184565b9050919050565b7f4552433732313a207472616e7366657220746f20746865207a65726f2061646460008201527f7265737300000000000000000000000000000000000000000000000000000000602082015250565b6000614223602483612d71565b915061422e826141c7565b604082019050919050565b6000602082019050818103600083015261425281614216565b9050919050565b600061426482612e21565b915061426f83612e21565b92508282101561428257614281613ad4565b5b828203905092915050565b600061429882612e21565b91506142a383612e21565b9250827fffffffffffffffffffffffffffffffffffffffffffffffffffffffffffffffff038211156142d8576142d7613ad4565b5b828201905092915050565b7f4552433732313a20617070726f766520746f2063616c6c657200000000000000600082015250565b6000614319601983612d71565b9150614324826142e3565b602082019050919050565b600060208201905081810360008301526143488161430c565b9050919050565b7f4552433732313a207472616e7366657220746f206e6f6e20455243373231526560008201527f63656976657220696d706c656d656e7465720000000000000000000000000000602082015250565b60006143ab603283612d71565b91506143b68261434f565b604082019050919050565b600060208201905081810360008301526143da8161439e565b9050919050565b600081905092915050565b60006143f782612d66565b61440181856143e1565b9350614411818560208601612d82565b80840191505092915050565b600061442982856143ec565b915061443582846143ec565b91508190509392505050565b600081519050919050565b600082825260208201905092915050565b600061446882614441565b614472818561444c565b9350614482818560208601612d82565b61448b81612db5565b840191505092915050565b60006080820190506144ab6000830187612eb6565b6144b86020830186612eb6565b6144c56040830185612fb9565b81810360608301526144d7818461445d565b905095945050505050565b6000815190506144f181612cd7565b92915050565b60006020828403121561450d5761450c612ca1565b5b600061451b848285016144e2565b91505092915050565b600061452f82612e21565b915061453a83612e21565b92508261454a57614549613cab565b5b828206905092915050565b7f4552433732313a206d696e7420746f20746865207a65726f2061646472657373600082015250565b600061458b602083612d71565b915061459682614555565b602082019050919050565b600060208201905081810360008301526145ba8161457e565b9050919050565b7f4552433732313a20746f6b656e20616c7265616479206d696e74656400000000600082015250565b60006145f7601c83612d71565b9150614602826145c1565b602082019050919050565b60006020820190508181036000830152614626816145ea565b9050919050565b7f4e487b7100000000000000000000000000000000000000000000000000000000600052603160045260246000fdfea2646970667358221220e9e91ef566e2f1d377dab10ef29135e0002a8a99abb2b7ab8bf9fa2a63ff909664736f6c6343000809003368747470733a2f2f676174657761792e70696e6174612e636c6f75642f697066732f516d544b6864566575747a705170366b704d38634b596d4a7431424c3455714c61477a464e61455843527545333968747470733a2f2f676174657761792e70696e6174612e636c6f75642f697066732f516d576b4262614769583536484641726153736236577961704a6b514c53524d50686d4551614d6545426e6e53362f",
  "linkReferences": {},
  "deployedLinkReferences": {}
}